:100000000C9479030C94A1030C94A1030C94A10308
:100010000C94A1030C94A1030C94A1030C94A103D0
:100020000C94A1030C94A1030C94A1030C94A103C0
:100030000C94A1030C94A1030C94A1030C94A103B0
:100040000C94F3070C94A1030C943C0F0C94010F37
:100050000C94A1030C94A1030C94A1030C94A10390
:100060000C94060D0C94A103130A730A730A580921
:10007000730AAF09F609F309730A730A730AED09E3
:10008000C2096509730A730A730A730A9209730A2B
:10009000480A730A730A730AE509730A730A730A32
:1000A000730A730A730A730A1B0A730A730A4709ED
:1000B000730A730A040AF909270A4A09730A4D09DF
:1000C000A909AC09730A730A730A730A2D0AD709BE
:1000D000730A730A6809730AE8097509B901F2031A
:1000E000B901F303B901F403B901F503B901F6034A
:1000F000B901F703B901F903B801FA03B801FB0329
:10010000B801FC03B701FD03B701FF03B60100040A
:10011000B5010104B5010304B4010404B4010504EC
:10012000B3010704B2010804B1010A04B0010B04D1
:10013000AF010D04AE010E04AD011004AC011104B9
:10014000AB011304AA011404A9011604A8011704A1
:10015000A7011904A5011B04A4011C04A3011E048A
:10016000A1011F04A00121049F0123049D01240477
:100170009C0126049A0127049801290497012B0465
:1001800095012C0494012E0492012F049001310456
:100190008F0133048D0134048B0136048901380446
:1001A0008801390486013B0484013C0482013E0439
:1001B000800140047E0141047C0143047A0145042E
:1001C00078014604770148047501490473014B0422
:1001D00070014D046E014E046C0150046A0151041B
:1001E0006801530466015504640156046201580411
:1001F00060015A045E015B045C015D0459015E0408
:100200005701600455016204530163045101650400
:100210004F0166044C0168044A016A0448016B04FA
:1002200046016D0444016F04410170043F017204F2
:100230003D0173043B0175043801770436017804ED
:1002400034017A0432017C0430017D042D017F04E5
:100250002B018004290182042701840424018504E0
:1002600022018704200189041E018A041C018C04D8
:1002700019018E04170190041501910413019304D0
:10028000110195040E0196040C0198040A019A04C8
:1002900008019B0406019D0404019F040201A104BE
:1002A0000001A204FE00A404FB00A604F900A704B8
:1002B000F700A904F500AB04F300AD04F100AE04AF
:1002C000F000B004EE00B204EC00B304EA00B504A0
:1002D000E800B704E600B904E400BA04E200BC0494
:1002E000E100BE04DF00BF04DD00C104DC00C30484
:1002F000DA00C404D800C604D700C804D500C90475
:10030000D400CB04D200CC04D100CE04CF00CF0463
:10031000CE00D104CD00D204CB00D404CA00D50451
:10032000C900D704C800D804C600D904C500DB043E
:10033000C400DC04C300DD04C200DE04C200E0042B
:10034000C100E104C000E204BF00E304BF00E40414
:10035000BE00E504BD00E604BD00E704BC00E70400
:10036000BC00E804BC00E904BB00EA04BB00EA04EA
:10037000BB00EB04BB00EB04BB00EC04BB00EC04D3
:10038000BB00EC04BB00ED04BB00ED04BB00ED04BE
:10039000BC00ED04BC00ED04BC00ED04BD00ED04A8
:1003A000BD00ED04BE00ED04BE00ED04BF00EC0492
:1003B000C000EC04C100EB04C100EB04C200EA047D
:1003C000C300EA04C400E904C500E904C600E80467
:1003D000C700E704C800E604C900E504CB00E40454
:1003E000CC00E304CD00E204CE00E104D000E00440
:1003F000D100DF04D200DE04D400DC04D500DB042D
:10040000D700DA04D800D804DA00D704DB00D5041A
:10041000DD00D404DE00D204E000D104E100CF040A
:10042000E300CD04E400CC04E600CA04E800C804FC
:10043000E900C704EB00C504EC00C304EE00C104EE
:10044000F000BF04F100BD04F300BC04F500BA04E1
:10045000F600B804F800B604FA00B404FB00B204D5
:10046000FD00B004FF00AE040001AC040201A904C9
:100470000401A7040501A5040701A3040801A104C0
:100480000A019F040C019D040D019B040F019804B7
:1004900011019604120194041401920415019004B0
:1004A00017018D0419018B041A0189041C018704AA
:1004B0001D0185041F0182042101800422017E04A4
:1004C00024017C042501790427017704280175049F
:1004D0002A0173042C0170042D016E042F016C0499
:1004E00030016A0432016704330165043501630495
:1004F0003601610438015E0439015C043B015A0491
:100500003D0158043E01550440015304410151048A
:1005100043014F0444014D0446014A044701480485
:10052000490146044A0144044C0142044D0140047F
:100530004F013D0450013B0452013904530137047B
:100540005501350457013304580131045A012F0471
:100550005B012D045D012B045E0129046001270469
:1005600061012504630123046401210466011F0461
:1005700067011D0469011C046B011A046C01180455
:100580006E0116046F011404710113047201110449
:1005900074010F0475010E0477010C0479010A043B
:1005A0007A0109047C0107047D0106047F0104042B
:1005B0008001030482010104830100048501FE031C
:1005C0008601FD038801FC038A01FB038B01F9030B
:1005D0008D01F8038E01F7039001F6039101F503F5
:1005E0009201F4039401F3039501F2039701F103DF
:1005F0009801F0039A01EF039B01EE039C01ED03C8
:100600009E01ED039F01EC03A001EB03A201EB03AC
:10061000A301EA03A401EA03A501E903A701E90391
:10062000A801E903A901E803AA01E803AB01E80373
:10063000AC01E803AD01E803AE01E803AF01E80354
:10064000B001E803B101E803B201E803B201E80335
:10065000B301E803B401E903B501E903B501E90316
:10066000B601EA03B601EA03B701EB03B701EB03F6
:10067000B801EC03B801EC03B801ED03B901EE03D6
:10068000B901EF03B901EF03B901F003B901F103B7
:10069000B901F20300000007000201000003040694
:1006A00000000000000000000000000025002800FD
:1006B0002B0000000000240027002A00040404048A
:1006C00004040404020202020202030303030303FC
:1006D00001020408102040800102040810200102D9
:1006E000040810201F1C1F1E1F1E1F1F1E1F1E1F61
:1006F000BE1211241FBECFEFD8E0DEBFCDBF12E087
:10070000A0E0B1E0E6E8F1E302C005900D92AC3F55
:10071000B107D9F724E0ACEFB2E001C01D92A438D4
:10072000B207E1F713E0C9E7D3E004C02197FE0167
:100730000E946A18C837D107C9F70E94760F0C9437
:100740000F130C9400000895CF92DF92EF92FF9266
:100750000F931F93CF93DF936C01EB017B01E40EAA
:10076000F51E00E010E0CE15DF0561F06991D601BD
:10077000ED91FC910190F081E02DC6010995080FE3
:10078000191FF1CFC801DF91CF911F910F91FF90F9
:10079000EF90DF90CF9008953FB7F89480910103D8
:1007A00090910203A0910303B091040326B5A89B86
:1007B00005C02F3F19F00196A11DB11D3FBFBA2FF3
:1007C000A92F982F8827820F911DA11DB11DBC0153
:1007D000CD0142E0660F771F881F991F4A95D1F718
:1007E00008950F931F93CF93DF93EC018881998134
:1007F000009729F02A813B812617370788F48B015F
:100800006F5F7F4F0E94A014009761F099838883E7
:100810001B830A832C813D81232B11F4FC01108260
:1008200081E001C080E0DF91CF911F910F91089589
:10083000EF92FF920F931F93CF93DF93FC012481DC
:1008400035816115710511F480E019C0411551051C
:10085000A9F07B01EC018A01020F131FB8010E946D
:10086000F103882389F3288139818C819D81B70127
:10087000820F931F0E947E151D830C8381E0DF9100
:10088000CF911F910F91FF90EF900895CF93DF9339
:10089000EC0188819981009711F00E940814198257
:1008A00018821D821C821B821A82DF91CF910895CB
:1008B000CF93DF93EC016115710561F0FB010190AD
:1008C0000020E9F73197AF01461B570B0E9418042F
:1008D000811103C0CE010E944604CE01DF91CF9169
:1008E0000895CF93DF93EC01FB0144815581608132
:1008F00071810E941804811103C0CE010E94460438
:10090000CE01DF91CF910895EF92FF920F931F9345
:10091000CF93DF93EC017B018A01BA010E94F103BE
:10092000811104C0CE010E94460407C01D830C83C0
:10093000B701888199810E947E15CE01DF91CF9108
:100940001F910F91FF90EF900895FC01118210828A
:10095000138212821582148216826115710551F07C
:10096000FB0101900020E9F73197AF01461B570BBF
:100970000C9484040895FC01808191810C940814E6
:10098000EF92FF920F931F93CF93DF93CDB7DEB714
:1009900062970FB6F894DEBF0FBECDBF8C01CB01BE
:1009A000F80111821082138212821582148216823B
:1009B00050E09E012F5F3F4F7901B9010E94121351
:1009C000F70101900020E9F73197AF014E195F0957
:1009D000B701C8010E94840462960FB6F894DEBF86
:1009E0000FBECDBFDF91CF911F910F91FF90EF9080
:1009F0000895EF92FF920F931F93CF93DF93CDB79C
:100A0000DEB729970FB6F894DEBF0FBECDBF8C01BD
:100A1000862FF801118210821382128215821482AD
:100A2000168250E09E012F5F3F4F7901B90190E09F
:100A30000E942813F70101900020E9F73197AF01D8
:100A40004E195F09B701C8010E94840429960FB6A8
:100A5000F894DEBF0FBECDBFDF91CF911F910F91F4
:100A6000FF90EF900895BF92CF92DF92EF92FF92A6
:100A70000F931F93CF93DF93CDB7DEB7A6970FB633
:100A8000F894DEBF0FBECDBFEB8EFC8E0D8F1E8F98
:100A90002F8F38A349A35AA36BA37CA38DA39EA336
:100AA000BE01655E7F4FCE0101960E94610EBD8042
:100AB000C980DA80EB80FC800B2D1E812F81388568
:100AC00049855A856B857C85CE014B960E9491089D
:100AD000BC01CE0144960E94A5046FE771E0CE01EF
:100AE0000D960E94A504BE016C5E7F4FCE010D964F
:100AF0000E9471046CE671E00E9458040E945B0839
:100B0000CE010D960E94BB04CE0144960E94BB0408
:100B100001E00B0DC980DA80EB80FC801E812F8103
:100B2000388549855A856B857C85CE014B960E9418
:100B30009108BC01CE0144960E94A50463E971E0CE
:100B4000CE010D960E94A504BE016C5E7F4FCE01C2
:100B50000D960E9471046CE671E00E9458040E9498
:100B60005B08CE010D960E94BB04CE0144960E9404
:100B7000BB04A6960FB6F894DEBF0FBECDBFDF91C3
:100B8000CF911F910F91FF90EF90DF90CF90BF908A
:100B90000895CF92DF92EF92FF920F931F93CF931E
:100BA000DF93CDB7DEB765970FB6F894DEBF0FBE03
:100BB000CDBF8C01CB016CE370E00E944218D62EB1
:100BC0007C01C62E4AE0682FCE010F960E94F904E0
:100BD0008AE0E816F10428F095E8E92E91E0F92E74
:100BE00004C082E7E82E81E0F82E4AE06D2DCE01A8
:100BF00008960E94F904E9E0EC1518F465E871E044
:100C000002C062E771E0CE0101960E94A504BE0118
:100C1000685F7F4FCE0101960E94710464E771E026
:100C20000E945804B7010E945804BE01615F7F4FC3
:100C30000E947104F80111821082138212821582BF
:100C4000148216820817190759F0FC01608171811E
:100C50006115710529F044815581C8010E94840401
:100C6000CE0101960E94BB04CE0108960E94BB04EF
:100C7000CE010F960E94BB04C80165960FB6F8948A
:100C8000DEBF0FBECDBFDF91CF911F910F91FF90BF
:100C9000EF90DF90CF9008958F929F92AF92BF9286
:100CA000CF92DF92EF92FF920F931F93CF93DF9338
:100CB000CDB7DEB7AD970FB6F894DEBF0FBECDBF90
:100CC000EAA2FBA20CA31DA32EA33FA348A759A7EA
:100CD0006AA77BA78CA79DA7BE016E5D7F4FCE0143
:100CE00001960E94610ECC80DB8009811A8121E08F
:100CF00041E0B801CE0182960E94310E7C012C2D7C
:100D00004D2DB801CE0182960E94310E8E199F0999
:100D1000880F991F880F991FFC01E452FF4FE5903F
:100D2000F490FC01E252FF4FC590D490B601CE0181
:100D30004B960E94C905B701CE0144960E94C90591
:100D400066E771E0CE010D960E94A504BE016C5EBF
:100D50007F4FCE010D960E94710466E871E00E94FB
:100D60005804BE01655E7F4F0E9471040E945B08BB
:100D7000CE010D960E94BB04CE0144960E94BB0496
:100D8000CE014B960E94BB04B601645C7F4FCE013E
:100D90004B960E94C905B701645C7F4FCE01449613
:100DA0000E94C9056AE871E0CE010D960E94A50473
:100DB000BE016C5E7F4FCE010D960E94710466E805
:100DC00071E00E945804BE01655E7F4F0E9471046D
:100DD0000E945B08CE010D960E94BB04CE01449692
:100DE0000E94BB04CE014B960E94BB048D810E81F4
:100DF00010E09CE3899F000D111D112457018DE225
:100E0000A80EB11C46019EE1891A9108B401CE01D9
:100E10004B960E94C905B501CE0144960E94C905B2
:100E20006AE971E0CE010D960E94A504BE016C5ED8
:100E30007F4FCE010D960E94710466E871E00E941A
:100E40005804BE01655E7F4F0E9471040E945B08DA
:100E5000CE010D960E94BB04CE0144960E94BB04B5
:100E6000CE014B960E94BB04B601625E7F4FCE015D
:100E70004B960E94C905B70167597F4FCE01449632
:100E80000E94C90562EB71E0CE010D960E94A50497
:100E9000BE016C5E7F4FCE010D960E94710466E824
:100EA00071E00E945804BE01655E7F4F0E9471048C
:100EB0000E945B08CE010D960E94BB04CE014496B1
:100EC0000E94BB04CE014B960E94BB04A016B10643
:100ED00020F481E00815190508F080E0AD960FB602
:100EE000F894DEBF0FBECDBFDF91CF911F910F9160
:100EF000FF90EF90DF90CF90BF90AF909F908F903A
:100F0000089590E0FC01EC56F94F3491FC01E05358
:100F1000F94F2491FC01E454F94FE491EE2309F4D4
:100F20003BC0332339F1333091F038F43130A9F03C
:100F3000323001F584B58F7D12C0363091F03730F4
:100F4000A1F03430B9F4809180008F7D03C080918E
:100F500080008F77809380000DC084B58F7784BD2B
:100F600009C08091B0008F7703C08091B0008F7D61
:100F70008093B000F0E0EE0FFF1FE855F94FA59108
:100F8000B4918FB7F894EC91611103C020952E2392
:100F900001C02E2B2C938FBF0895CF92DF92EF923A
:100FA000FF92CF93DF936B017C010E94CC03EB0196
:100FB000C114D104E104F10479F00E94CC036C1B4C
:100FC0007D0B683E7340A0F381E0C81AD108E108A8
:100FD000F108C851DC4FECCFDF91CF91FF90EF903B
:100FE000DF90CF9008951F920F920FB60F921124A9
:100FF0002F933F938F939F93AF93BF938091FD0265
:101000009091FE02A091FF02B09100033091FC028A
:1010100023E0230F2D3720F40196A11DB11D05C03B
:1010200026E8230F0296A11DB11D2093FC02809398
:10103000FD029093FE02A093FF02B0930003809103
:10104000010390910203A0910303B0910403019660
:10105000A11DB11D8093010390930203A09303038C
:10106000B0930403BF91AF919F918F913F912F91C6
:101070000F900FBE0F901F9018950F931F93CF9353
:10108000DF93C3E1D4E0E881F9810190F081E02DA4
:101090006DE0CE0109958C01E881F9810190F08124
:1010A000E02D6AE0CE010995800F911FDF91CF916D
:1010B0001F910F910895EF92FF920F931F93CF937B
:1010C000DF937C01C0E0D0E000E010E0F701848114
:1010D0009581C817D907D0F4E0911304F091140456
:1010E0000190F081E02DD7012D913C912115310522
:1010F00029F0D901AC0FBD1F6C9101C060E083E104
:1011000094E00995080F191F2196E0CF0E943D0831
:10111000800F911FDF91CF911F910F91FF90EF9062
:1011200008952F923F924F925F926F927F928F928B
:101130009F92AF92BF92CF92DF92EF92FF920F9366
:101140001F93CF93DF93CDB7DEB7C252D1400FB616
:10115000F894DEBF0FBECDBF5C01C55FDE4FC88215
:10116000CB50D140C45FDE4FD882CC50D140C05F5D
:10117000DE4F1883C051D140CF5EDE4F2883C1516E
:10118000D140CD5EDE4F4883C351D140CC5EDE4FAF
:101190005883C451D140CB5EDE4F6883C551D140E6
:1011A000CA5EDE4F7883C651D140C55FDE4F88806E
:1011B0009980CB50D1401E2DE32E1982432E512C05
:1011C000C201079667E070E00E945618C15EDE4FCC
:1011D0008883CF51D140C05EDE4F9883C052D1404A
:1011E0008F2D6AE00E943618C95EDE4F9883C75182
:1011F000D14083E5682E82E0782E6E01D3941401ED
:1012000033E023223324812F90E0DC01AD51B94F2C
:10121000CF5DDE4FB983A883C152D1403FEF310F7C
:10122000C85EDE4F3883C851D140832F90E0880FCD
:10123000991FDC01AA5DBE4FC75EDE4FB983A8834C
:10124000C951D140EA948E2D90E0880F991FFC017E
:10125000E25CFE4FC55EDE4FF983E883CB51D1409F
:10126000B301D301ED913D01EE2309F445C18E2F69
:10127000EE0F990BAA0BBB0BFC01E154F109EA3309
:10128000F10508F030C1EC5CFF4F0C946A181F9216
:10129000FF92EAC01F92FF92C3C0F6E0FE1508F469
:1012A0006EC0C55EDE4FA881B981CB51D14064C00C
:1012B000B6E0BE1508F476C0C55EDE4FE881F98160
:1012C000CB51D140608171816FC05F924F92A8C0B5
:1012D000C05EDE4F3881C052D1403F93C15EDE4FC9
:1012E0003881CF51D1403F939BC021E041E0B40110
:1012F000C5010E94310EC35EDE4F99838883CD51B4
:10130000D1402F2D412FB401C5010E94310E01960D
:10131000C35EDE4FA881B981CD51D1408A1B9B0BA2
:101320009F937DC0C95EDE4F3881C751D1403130B7
:1013300039F0323041F0333049F064E472E082C079
:101340006CE972E07FC061ED71E07CC061E472E045
:1013500079C01F921F9388C01F921F9361C0C85EFF
:10136000DE4F3881C851D1403C3048F4C75EDE4F73
:10137000A881B981C951D1406D917C9163C069E365
:1013800072E060C0C85EDE4F3881C851D1403C3049
:1013900048F4C75EDE4FA881B981C951D1406D9133
:1013A0007C9102C069E372E043E050E09EC0CF5DF3
:1013B000DE4FE881F981C152D1408491123071F53C
:1013C0002114310409F496C029C09F928F9228C03D
:1013D000C401805D97409F9346C081E02114310491
:1013E000E9F080E01BC01F920F933EC01F920F9345
:1013F00017C0002329F00D3028F084EF800F32C091
:101400008CE030C0802F2EC0002329F00D3028F052
:1014100084EF800F03C08CE001C0802F1F928F9358
:1014200086E692E023C00C3018F06AE472E00AC04D
:1014300067E472E007C00C3018F06DE472E002C09F
:1014400060E572E0CE0101960E94731509CFC05F7E
:10145000DE4F8881C051D14005C0CF5EDE4F88810C
:10146000C151D1401F928F9381E692E09F938F9359
:10147000DF92CF920E949515B601CE0101960E948F
:1014800073150F900F900F900F900F900F90E8CE64
:10149000CA5EDE4F8881C651D1408F93CB5EDE4F4E
:1014A0008881C551D1408F93CC5EDE4F8881C45175
:1014B000D1408F93CD5EDE4F8881C351D1408F9351
:1014C00089E692E09F938F93DF92CF920E949515C9
:1014D000B601CE0101960E9473150FB6F894DEBFD7
:1014E0000FBECDBFBDCE41E050E0CE0101960E94BF
:1014F0008515B6CE8F5F92CFCE010196CE5DDE4FC1
:101500000FB6F894DEBF0FBECDBFDF91CF911F9114
:101510000F91FF90EF90DF90CF90BF90AF909F9092
:101520008F907F906F905F904F903F902F90089595
:1015300020917E0390917D03213208F046C0809176
:101540005A038111FCCF32E030935A0331E03093DB
:1015500059033FEF309358031092570320935603DB
:10156000ADE5B3E046E353E0FA013E2F341B3217FA
:1015700018F43D913193F9CF109235032091350342
:10158000990F922B9093350390913403913041F44D
:1015900010923403909135039093BB0095EC01C0F9
:1015A00095EE9093BC0090915A039230E1F39091A4
:1015B00058039F3F79F080915803803241F0809129
:1015C0005803803331F084E005C081E003C082E03D
:1015D00001C083E010925C0310927E0310925B03C3
:1015E000089590915A039111FCCF813208F080E266
:1015F00091E090935A03909359032FEF209358034F
:1016000010925703280F209356039093350390911F
:101610003503906D9093350390913403913041F4EC
:1016200010923403909135039093BB0095EC01C068
:1016300095EE9093BC0090915A039130E1F3909114
:101640005703981710F480915703A6E3B3E024E101
:1016500033E0F9019E2F921B981718F49D919193F6
:10166000F9CF109213038093120308952F923F92A3
:101670004F925F926F927F928F929F92AF92BF92A2
:10168000CF92DF92EF92FF920F931F93CF93DF934E
:10169000CDB7DEB728970FB6F894DEBF0FBECDBF2B
:1016A0004C015B01C12CD12C37E0232E312C00E002
:1016B00010E0CA14DB040CF048C021E0821691044B
:1016C00021F4C101801B910B01C0C801FE013196BC
:1016D0003F01E12CF12C880F991FFC01EA5EFE4FBF
:1016E00040805180EEE0F1E0DE01119688E001904B
:1016F0000D928A95E1F7F301619171913F016421A7
:101700007521E0913504F0913604EE0DFF1D8081C6
:101710000E948107F2E0EF0EF11C28E0E216F104CE
:1017200009F76091370470913804072E000C880B7C
:10173000990B0E94CD070F5F1F4F0830110509F06C
:10174000BCCF3FEFC31AD30AB2CFE0913504F0917A
:101750003604E00FF11F60E080810E9481070E5F78
:101760001F4F0830110589F728960FB6F894DEBF91
:101770000FBECDBFDF91CF911F910F91FF90EF90E2
:10178000DF90CF90BF90AF909F908F907F906F90A1
:101790005F904F903F902F90089585ED8093BC000F
:1017A0008091BC0084FDFCCF10925A0308950895E7
:1017B000E091130380911203E81730F4F0E0EC5E3F
:1017C000FC4F808190E008958FEF9FEF08959091F6
:1017D000130380911203981750F4E92FF0E0EC5EA8
:1017E000FC4F208130E09F5F9093130302C02FEFE6
:1017F0003FEFC90108958091120390E020911303F7
:10180000821B91090895CF92DF92EF92FF920F937E
:101810001F93CF93DF937C018A0180915B03882320
:1018200089F0EB016B01C40ED51ECC15DD05F1F07E
:101830006991D701ED91FC910190F081E02DC701F4
:101840000995F3CF842F413288F490915A03943054
:1018500069F440935B04FB0129E334E0D9019A2F3A
:10186000921B981718F491919D93F9CFC801DF91BD
:10187000CF911F910F91FF90EF90DF90CF9008953F
:1018800020915B032223C9F020917E03203240F097
:1018900021E030E0FC013383228380E090E0089572
:1018A00080915C03E82FF0E0E35AFC4F60838F5F88
:1018B00080935C0380937E0309C080915A03843037
:1018C00029F481E080935B046093390481E090E027
:1018D00008950F931F93CF93DF93FC01A685B785DF
:1018E0008D01005C1F4FE8018881998101968F73FB
:1018F0009927AD014E5B5F4FEA012881398182173C
:101900009307D1F3E80128813981A20FB31F6C93AB
:10191000A685B785A05CBF4F11969C938E93A68930
:10192000B7892C9181E090E0078C02C0880F991F45
:101930000A94E2F7822B8C9381E081A30488F589D5
:10194000E02D80818064808381E090E0DF91CF9101
:101950001F910F910895FC0181A1882329F0A4898A
:10196000B5898C9186FFFBCF11A20895FC01A48557
:10197000B585FD01E05CFF4F208131813296808189
:1019800091812817390779F080819181A80FB91FBB
:101990008C91208131812F5F3F4F2F73332731830B
:1019A000208390E008958FEF9FEF0895DC011C964F
:1019B000ED91FC911D97DF01A05CBF4F2D913C91F3
:1019C000119712968D919C9111972817390739F02C
:1019D0008D919C91E80FF91F808190E008958FEF21
:1019E0009FEF0895FC0124853585F901E05CFF4FE8
:1019F00080819181329620813181821B930B8F737C
:101A00009927089583E194E00C94F20C1F920F92B1
:101A10000FB60F9211242F933F934F935F936F93C1
:101A20007F938F939F93AF93BF93EF93FF93809197
:101A3000B900887F803609F49CC068F5883209F4C3
:101A40005BC090F4803109F454C038F4882309F461
:101A5000F3C0883009F44DC0F3C0883109F44CC09C
:101A6000803209F45DC0ECC0803409F468C048F4E9
:101A7000803309F455C0883309F0E2C080935803DD
:101A8000D5C0803509F44FC0883509F45DC088346D
:101A900009F0D6C0D3C0883909F4C4C0A8F4883787
:101AA00009F467C038F4883609F463C0803709F454
:101AB00060C0C6C0883809F4B5C0803909F45FC079
:101AC000803809F0BDC05BC0803B09F483C038F4A6
:101AD000803A09F466C0883A09F47CC0B1C0803C01
:101AE00009F4A4C0883C09F4A1C0883B09F487C06C
:101AF000A7C08091350310C0909157038091560381
:101B0000981770F5E091570381E08E0F809357038B
:101B1000F0E0EA5CFC4F80818093BB0085EC83C0E1
:101B2000809358038BC0E091570381E08E0F809320
:101B300057038091BB00F0E0EA5CFC4F80839091FA
:101B40005703809156036BC0E091570381E08E0FDD
:101B5000809357038091BB00F0E0EA5CFC4F8083E8
:101B60008091590381116AC081E08093340384EA33
:101B70005EC083E080935A0310927F04CFCF8091A0
:101B80007F04803208F04EC0E0917F0481E08E0F28
:101B900080937F048091BB00F0E0E15AFB4F80838B
:101BA000BDCF80917F04803230F4E0917F04F0E07B
:101BB000E15AFB4F10820E94CD0B60917F0470E0D0
:101BC000E0915D04F0915E048FE594E00995109238
:101BD0007F042CC084E080935A0310925C0410921E
:101BE0005B04E0915904F0915A04099580915B04DB
:101BF000811105C081E080935B0410923904E0916B
:101C00005C0481E08E0F80935C04F0E0E75CFB4FA6
:101C100080818093BB0090915C0480915B04981755
:101C200008F47CCF85E88093BC000AC085EC8093E3
:101C3000BC0010925A0304C0109258030E94CD0BAE
:101C4000FF91EF91BF91AF919F918F917F916F9194
:101C50005F914F913F912F910F900FBE0F901F906A
:101C60001895DB01A05DB74030E0E4EEF6E081E0DE
:101C70008E1B982F9E0F941728F49491290F311DD5
:101C80003196F7CF423029F4CD0183709927892B03
:101C9000A9F04DE651E0A49FC001A59F900DB49F0F
:101CA000900D11246D5C77407695679576956795D4
:101CB000860F971F0197820F931F08952F5F3F4F45
:101CC000E8CFAF92BF92CF92DF92EF92FF920F9345
:101CD0001F93CF93DF93CDB7DEB72E970FB6F8944F
:101CE000DEBF0FBECDBF7C018B0181E080935B0323
:101CF00088E680937D0310925C0310927E0360E07F
:101D00008FE793E00E94400C0E94980A87E090E0E1
:101D10000E94F10A90911203809113039817F1F336
:101D20005E018FE0A80EB11CFE0131966F018FE7B6
:101D300093E00E94E70B282F82958F702F70FAE0B6
:101D40008F9F200D112430E0F501329322935F0123
:101D5000EC15FD0561F70E94980A69817A8160534C
:101D6000784FF801718360834B8142832D812383F7
:101D70008F818783B984B482CB84C582DD84D68287
:101D8000C8010E94310E9C01A8E1B0E00E947018C9
:101D90009B01AC012B0D311D411D511DACE3B0E089
:101DA0000E947F189B01AC012C0D311D411D511D5E
:101DB0000E947F18DC01CB018D0D911DA11DB11D6D
:101DC00080599A4CA249B74CF80180879187A28725
:101DD000B3878CE0D70101900D928A95E1F7C70196
:101DE0002E960FB6F894DEBF0FBECDBFDF91CF9118
:101DF0001F910F91FF90EF90DF90CF90BF90AF9029
:101E000008951F920F920FB60F9211242F933F93B4
:101E10008F939F93EF93FF932091CB033091CC034B
:101E20008091CD039091CE032817390731F480912A
:101E3000C1008F7D8093C10014C0E091CD03F0916B
:101E4000CE03E557FC4F20818091CD039091CE03C6
:101E500001968F7399279093CE038093CD0320939F
:101E6000C600FF91EF919F918F913F912F910F901D
:101E70000FBE0F901F9018951F920F920FB60F92E2
:101E800011242F934F935F938F939F93EF93FF931F
:101E90008091C00082FD1CC02091C60080910F047B
:101EA0009091100401968F739927409111045091DD
:101EB00012048417950771F0E0910F04F09110045B
:101EC000E153FC4F20839093100480930F0402C0D1
:101ED0008091C600FF91EF919F918F915F914F91FB
:101EE0002F910F900FBE0F901F901895CF93DF93F7
:101EF000CDB7DEB765970FB6F894DEBF0FBECDBF86
:101F0000789484B5826084BD84B5816084BD85B5D4
:101F1000826085BD85B5816085BD80916E008160E0
:101F200080936E0010928100809181008260809386
:101F30008100809181008160809381008091800088
:101F40008160809380008091B10084608093B100B3
:101F50008091B00081608093B00080917A008460AD
:101F600080937A0080917A00826080937A008091D9
:101F70007A00816080937A0080917A0080688093F3
:101F80007A001092C100E0912704F091280481E0CA
:101F900090E09C010090330402C0220F331F0A948A
:101FA000E2F72083E0912304F09124041082E09171
:101FB0002504F09126042FEC208310923404E09144
:101FC0002904F0912A0440819C0100902F0402C052
:101FD000220F331F0A94E2F7242B2083E091290477
:101FE000F0912A0440819C010090300402C0220F2D
:101FF000331F0A94E2F7242B2083E0912904F09107
:102000002A0440819C010090310402C0220F331F3A
:102010000A94E2F7242B2083E0912904F0912A040A
:1020200020810090320402C0880F991F0A94E2F7C1
:1020300080958223808310921303109212031092D2
:102040005C0310927E0310925A0311E0109359031F
:102050001092340361E082E10E94810761E083E134
:102060000E9481078091B9008E7F8093B900809192
:10207000B9008D7F8093B90088E48093B80085E42F
:102080008093BC0010935B0388E680937D031092DD
:102090005C0310927E036EE08FE793E00E94400C99
:1020A0000E94980A81E090E00E94F10A9091120348
:1020B000809113039817F1F38FE793E00E94E70BE9
:1020C000182F0E94980ADD24D394D0925B0388E6EF
:1020D00080937D0310925C0310927E036EE08FE785
:1020E00093E00E94400C612F6B738FE793E00E9496
:1020F000400C0E94980A80EDE82E8093060387E04A
:1021000080930703D0920803D092090310920A0328
:1021100010920B0310920C0386E080930D0380E76E
:10212000682F80930E0385E380930F038DE68093E1
:10213000100388E38093110377E0F72E01E011E0AC
:1021400020E030E040E056E075E38DE698E30E9441
:102150004C068111D092050320E030E0E091350477
:10216000F0913604E20FF31F808191819927FC01E1
:10217000E053F94F4491FC01E454F94F84918823D2
:1021800099F090E0880F991FFC01EE54F94FA5914A
:10219000B491FC01E855F94F859194918FB7F8946B
:1021A000EC91E42BEC938FBF2E5F3F4F283031052D
:1021B000A9F649E050E06AEC71E083E194E00E9406
:1021C000A4030E943D08CE0101966C01E090060335
:1021D000F0900703009108031091090320910A036E
:1021E00030910B0340910C0350910D0360910E034D
:1021F00070910F0380911003909111030E94330599
:10220000E0900603F0900703009108031091090382
:1022100020910A0330910B0340910C0350910D0360
:1022200060910E0370910F03809110039091110340
:102230000E944C06F82E4AE0682FC6010E94F9045D
:1022400064ED71E0CE0108960E94A504B601CE01AE
:1022500008960E9471040E945B08CE0108960E94B5
:10226000BB04C6010E94BB0480E090E00E945D13A5
:10227000082F10E04AE068E770E0C6010E94C00441
:102280004AE0B801CE0108960E94C0046CED71E0EE
:10229000CE010F960E94A504BE01685F7F4FCE015C
:1022A0000F960E94710463EE71E00E945804B6011B
:1022B0000E9471040E945B08CE010F960E94BB042D
:1022C000CE0108960E94BB04C6010E94BB04A090E8
:1022D0000503F11003C00115110519F4AA2009F432
:1022E000DBC0B12C4AE0B801CE0108960E94C004C0
:1022F00067EE71E0CE010F960E94A504BE01685FF3
:102300007F4FCE010F960E94710469EF71E00E9429
:1023100058047C014AE0B601C5010E941D13F60174
:1023200001900020E9F73197AF014C195D09B60122
:10233000C7010E941804811103C0C7010E9446040E
:10234000C7010E945B08CE010F960E94BB04CE011C
:1023500008960E94BB040150110908F43CC063E3D5
:1023600070E080E090E00E94360B602F80E090E00B
:102370000E9465134AE068E770E0C6010E94C0044D
:1023800080E090E00E945D13682F70E04AE0CE018B
:1023900008960E94C0046CED71E0CE010F960E9479
:1023A000A504BE01685F7F4FCE010F960E947104A5
:1023B00068E072E00E945804B6010E9471040E9415
:1023C0005B08CE010F960E94BB04CE0108960E94C6
:1023D000BB04C601BECF80910503882309F4C5C0A4
:1023E0008CE3A82EB12C4AE06CE370E0C6010E9499
:1023F000C0044AE0B501CE0108960E94C0046AE01C
:1024000072E0CE010F960E94A504BE01685F7F4F67
:10241000CE010F960E94710463EE71E00E94580491
:10242000B6010E94710462E272E00E9458040E94A8
:102430005B08CE010F960E94BB04CE0108960E9455
:10244000BB04C6010E94BB04E0900603F0900703A2
:10245000009108031091090320910A0330910B03A6
:1024600040910C0350910D0360910E0370910F0386
:1024700080911003909111030E94330568EE73E080
:1024800080E090E00E94CD0781E0A81AB10809F031
:10249000AACF1092050369C0FF2009F466C008376F
:1024A00011050CF062C088E790E07C01E01AF10AA7
:1024B0004AE0B701C6010E94C00465E272E0CE01A5
:1024C00008960E94A504B601CE0108960E947104E8
:1024D0000E945B08CE0108960E94BB04C6010E94C0
:1024E000BB04F12C0F5F1F4F63E370E081E090E0CD
:1024F0000E94360B6F2D600F80E090E00E94651304
:102500004AE068E770E0C6010E94C00480E090E005
:102510000E945D13682F70E04AE0CE0108960E9489
:10252000C0046CED71E0CE010F960E94A504BE01BF
:10253000685F7F4FCE010F960E94710468E072E0E1
:102540000E945804B6010E9471040E945B08CE01EB
:102550000F960E94BB04CE0108960E94BB04C601E0
:102560000E94BB04F394FE10BFCF60ED77E080E0E3
:1025700090E00E94CD070E94020D28CEEFE7F3E025
:102580001382128288EE93E0A0E0B0E0848395830A
:10259000A683B78320E531E031832083E3E1F4E0D3
:1025A0001382128284839583A683B78380E691E0A9
:1025B000918380838FEC93E0958784878BE893E009
:1025C0009787868785EC90E0918B808B84EC90E0F8
:1025D000938B828B80EC90E0958B848B81EC90E0E8
:1025E000978B868B82EC90E0918F808F86EC90E0C9
:1025F000938F828F84E0848F83E0858F87E0868F3E
:1026000085E0878F81E080A3E5E3F4E082E090E05D
:102610009383828380E091E0918380830895F8948E
:102620000C94C1184532510520F4423010F00C943E
:102630001D13FB011082CB010895BB274A3031F4F2
:10264000992322F4BDE2909581959F4F0C94341309
:102650004532510520F4423010F00C943313FB0145
:102660001082CB010895BB27FB015527AA27880FAD
:10267000991FAA1FA41710F0A41B83955051B9F7F6
:10268000A05DAA3308F0A95DA193009779F7B11175
:10269000B1931192CB010C944D13DC01FC01672F17
:1026A00071917723E1F7329704C07C916D93708329
:1026B0006291AE17BF07C8F30895F999FECF92BD96
:1026C00081BDF89A992780B50895262FF999FECFF4
:1026D0001FBA92BD81BD20BD0FB6F894FA9AF99A3F
:1026E0000FBE01960895CF93DF938230910510F4C9
:1026F00082E090E0E0918204F091830420E030E0F9
:10270000C0E0D0E0309711F140815181481759075E
:10271000C0F04817590761F482819381209719F01E
:102720009B838A832BC0909383048093820426C06A
:102730002115310519F04217530718F49A01BE010B
:10274000DF01EF010280F381E02DDCCF211531059F
:1027500009F1281B390B2430310590F412968D9124
:102760009C9113976115710521F0FB01938382837E
:1027700004C09093830480938204FD01329644C088
:10278000FD01E20FF31F81939193225031092D93A4
:102790003C933AC02091800430918104232B41F472
:1027A00020910A0130910B01309381042093800421
:1027B00020910801309109012115310541F42DB70F
:1027C0003EB740910C0150910D01241B350BE09157
:1027D0008004F0918104E217F307A0F42E1B3F0B55
:1027E0002817390778F0AC014E5F5F4F2417350783
:1027F00048F04E0F5F1F50938104409380048193F3
:10280000919302C0E0E0F0E0CF01DF91CF91089515
:102810000F931F93CF93DF93009709F48CC0FC01B3
:102820003297138212820091820410918304011561
:10283000110581F420813181820F931F2091800442
:10284000309181042817390779F5F0938104E093DA
:10285000800471C0D80140E050E0AE17BF0750F4CB
:1028600012962D913C911397AD012115310509F177
:10287000D901F3CF9D01DA01338322836081718115
:10288000860F971F8217930769F4EC01288139811D
:10289000260F371F2E5F3F4F318320838A819B8114
:1028A00093838283452B29F4F0938304E09382047D
:1028B00042C01396FC93EE931297ED014991599102
:1028C0009E01240F351FE217F30771F48081918177
:1028D000840F951F029611969C938E93828193810B
:1028E00013969C938E931297E0E0F0E0D801129635
:1028F0008D919C911397009719F0F8018C01F6CFF8
:102900008D919C9198012E5F3F4F820F931F2091D4
:102910008004309181042817390769F4309729F42D
:10292000109283041092820402C0138212821093C8
:10293000810400938004DF91CF911F910F9108953E
:10294000A0E0B0E0E6EAF4E10C948E18EC01009708
:1029500021F4CB010E947313B8C0FC01E60FF71FEE
:102960009C0122503109E217F30708F4ACC0D901E9
:102970000D911C91119706171707B0F0053011053E
:1029800008F49FC0C80104978617970708F499C0F8
:1029900002501109061B170B019311936D937C9341
:1029A000CF010E9408148DC05B01A01AB10A4C012E
:1029B000800E911EA0918204B091830440E050E00B
:1029C000E12CF12C109709F44AC0A815B905D1F5EE
:1029D0006D907C901197630182E0C80ED11CCA14DF
:1029E000DB0480F1A3014A195B096A0182E0C80E89
:1029F000D11C1296BC9012971396AC91B5E0CB16F1
:102A0000D10440F0B282A38351834083D9016D93F6
:102A10007C930AC00E5F1F4FC301800F911FF90105
:102A200091838083EB2DFA2FE114F10431F0D7016B
:102A30001396FC93EE93129744C0F0938304E093B3
:102A400082043FC08D919C9111974817590708F453
:102A5000AC017D0112960D90BC91A02DB3CF809159
:102A600080049091810488159905E1F44617570771
:102A7000C8F48091080190910901009741F48DB745
:102A80009EB740910C0150910D01841B950BE817E6
:102A9000F907C8F4F0938104E0938004F90171838D
:102AA00060830FC0CB010E9473137C01009759F023
:102AB000A801BE010E946A15CE010E940814C70138
:102AC00004C0CE0102C080E090E0CDB7DEB7EEE0FA
:102AD0000C94AA18FB01DC0102C001900D92415038
:102AE0005040D8F70895FB01DC010D900020E9F774
:102AF000119701900D920020E1F70895FB01DC0190
:102B000001900D920020E1F70895FB01DC010D908A
:102B10000020E9F711974150504028F00190002023
:102B20000D92C9F708951C920895AEE0B0E0EBE96C
:102B3000F5E10C9498180D891E8986E08C831A8320
:102B400009838FEF9FE79E838D83AE01475E5F4FC2
:102B50006F89788DCE0101960E94B8152F81388536
:102B6000F801E20FF31F10822E96E4E00C94B418E3
:102B7000ACE0B0E0EEEBF5E10C948A187C016B015F
:102B80008A01FC0117821682838181FFBDC1CE01BB
:102B900001964C01F7019381F60193FD859193FF16
:102BA00081916F01882309F4ABC1853239F493FD1B
:102BB000859193FF81916F01853229F4B70190E0EF
:102BC0000E94A017E7CF512C312C20E02032A0F436
:102BD0008B3269F030F4803259F0833269F420612D
:102BE0002CC08D3239F0803339F4216026C0226048
:102BF000246023C0286021C027FD27C030ED380F96
:102C00003A3078F426FF06C0FAE05F9E300D1124BA
:102C1000532E13C08AE0389E300D1124332E2062CB
:102C20000CC08E3221F426FD6BC1206406C08C36A8
:102C300011F4206802C0883641F4F60193FD8591B5
:102C400093FF81916F018111C1CF982F9F7D955482
:102C5000933028F40C5F1F4FFFE3F9830DC08336D8
:102C600031F0833771F0833509F05BC022C0F80181
:102C7000808189830E5F1F4F44244394512C54015B
:102C800015C03801F2E06F0E711CF801A080B18010
:102C900026FF03C0652D70E002C06FEF7FEFC50116
:102CA0002C870E9495172C0183012C852F77222ECB
:102CB00017C03801F2E06F0E711CF801A080B180DE
:102CC00026FF03C0652D70E002C06FEF7FEFC501E6
:102CD0002C870E948A172C012C852068222E8301C4
:102CE00023FC1BC0832D90E048165906B0F4B701B1
:102CF00080E290E00E94A0173A94F4CFF50127FCFF
:102D0000859127FE81915F01B70190E00E94A01795
:102D100031103A94F1E04F1A51084114510471F7FF
:102D2000E5C0843611F0893639F5F80127FF07C070
:102D300060817181828193810C5F1F4F08C0608127
:102D40007181072E000C880B990B0E5F1F4F2F7699
:102D5000722E97FF09C090958095709561957F4F71
:102D60008F4F9F4F2068722E2AE030E0A4010E940E
:102D7000D817A82EA81844C0853729F42F7EB22E64
:102D80002AE030E025C0F22FF97FBF2E8F36C1F048
:102D900018F4883579F0B4C0803719F0883721F0FD
:102DA000AFC02F2F2061B22EB4FE0DC08B2D8460DA
:102DB000B82E09C024FF0AC09F2F9660B92E06C006
:102DC00028E030E005C020E130E002C020E132E040
:102DD000F801B7FE07C060817181828193810C5F29
:102DE0001F4F06C06081718180E090E00E5F1F4F31
:102DF000A4010E94D817A82EA818FB2DFF777F2EBC
:102E000076FE0BC0372D3E7FA51450F474FE0AC029
:102E100072FC08C0372D3E7E05C0BA2C372D03C08A
:102E2000BA2C01C0B52C34FF0DC0FE01EA0DF11D16
:102E30008081803311F4397E09C032FF06C0B3941B
:102E4000B39404C0832F867809F0B39433FD13C084
:102E500030FF06C05A2CB31418F4530C5B18B32C73
:102E6000B31468F4B70180E290E03C870E94A01799
:102E7000B3943C85F5CFB31410F43B1801C0312C4A
:102E800034FF12C0B70180E390E03C870E94A01796
:102E90003C8532FF17C031FD03C088E790E002C0D7
:102EA00088E590E0B7010CC0832F867859F031FF98
:102EB00002C08BE201C080E237FD8DE2B70190E0F5
:102EC0000E94A017A51438F4B70180E390E00E9497
:102ED000A0175A94F7CFAA94F401EA0DF11D80814E
:102EE000B70190E00E94A017A110F5CF332009F49C
:102EF00051CEB70180E290E00E94A0173A94F6CF3D
:102F0000F7018681978102C08FEF9FEF2C96E2E157
:102F10000C94A618FC010590615070400110D8F780
:102F2000809590958E0F9F1F0895FC016150704011
:102F300001900110D8F7809590958E0F9F1F0895EE
:102F40000F931F93CF93DF93FB01238121FD03C0D8
:102F50008FEF9FEF28C022FF16C046815781248142
:102F600035814217530744F4A081B1819D012F5F41
:102F70003F4F318320838C93268137812F5F3F4FD2
:102F80003783268310C0EB01092F182F0084F185A9
:102F9000E02D0995892BE1F68E819F8101969F8313
:102FA0008E83812F902FDF91CF911F910F910895E4
:102FB000FA01AA27283051F1203181F1E8946F936A
:102FC0006E7F6E5F7F4F8F4F9F4FAF4FB1E03ED010
:102FD000B4E03CD0670F781F891F9A1FA11D680FAE
:102FE000791F8A1F911DA11D6A0F711D811D911DE1
:102FF000A11D20D009F468943F912AE0269F112456
:103000003019305D3193DEF6CF010895462F4770B9
:10301000405D4193B3E00FD0C9F7F6CF462F4F7014
:10302000405D4A3318F0495D31FD4052419302D072
:10303000A9F7EACFB4E0A695979587957795679518
:10304000BA95C9F700976105710508959B01AC0118
:103050000A2E06945795479537952795BA95C9F73F
:10306000620F731F841F951FA01D0895991B79E09F
:1030700004C0991F961708F0961B881F7A95C9F708
:1030800080950895AA1BBB1B51E107C0AA1FBB1F57
:10309000A617B70710F0A61BB70B881F991F5A95E4
:1030A000A9F780959095BC01CD01089597FB072E57
:1030B00016F4009407D077FD09D00E94421807FC4F
:1030C00005D03EF4909581959F4F08957095619538
:1030D0007F4F0895EE0FFF1F0590F491E02D0994A6
:1030E000A29FB001B39FC001A39F700D811D112449
:1030F000911DB29F700D811D1124911D08950E9494
:103100007018A59F900DB49F900DA49F800D911DE8
:10311000112408952F923F924F925F926F927F9267
:103120008F929F92AF92BF92CF92DF92EF92FF92D7
:103130000F931F93CF93DF93CDB7DEB7CA1BDB0B83
:103140000FB6F894DEBF0FBECDBF09942A88398828
:1031500048885F846E847D848C849B84AA84B9842F
:10316000C884DF80EE80FD800C811B81AA81B9813B
:10317000CE0FD11D0FB6F894DEBF0FBECDBFED014F
:063180000895F894FFCF52
:10318600080009000A000B0000008404200001006A
:10319600020004000800010003000200060004000B
:1031A6000C00080009006D0275027E0284028A0284
:1031B6008E02930298029F02A902B102BA02C302CA
:1031C600CA02D202DC02E502EC02F50200000000AF
:1031D600400C030CFB0BE70BD80BD70B00000000D1
:1031E600690CA403F20CB60CD60CAB0C2E20646151
:1031F600790030003A007477696C69676874204317
:1032060045543A202000202D20007477696C6967A8
:10321600687420434553543A20007477696C696793
:103226006874202B2064656C6179204345543A20EC
:1032360020007477696C69676874202B2064656C5C
:10324600617920434553543A2000736574757020A4
:10325600656E640069734461793A20006F70656E2B
:103266003A2000202F2000636C6F7365206F706515
:103276006E556E6974733A2000206164646A7573D2
:10328600746D656E743A20002F0077616974696EFB
:103296006720666F722061646A7573746D656E74FB
:1032A60020002073006F70656E206D697373696E00
:1032B60067556E6974733A2000556E6B6E6F776E44
:1032C60000726400746800414D00504D00706D003E
:1032D600616D00592D6D2D6420483A693A73207A44
:1032E600002530326400256400256C75004A616E45
:1032F60075617279004665627275617279004D6119
:1033060072636800417072696C004D6179004A759C
:103316006E65004A756C7900417567757374005364
:10332600657074656D626572004F63746F62657275
:10333600004E6F76656D62657200446563656D6209
:103346006572004D6F6E64617900547565736461D2
:1033560079005765646E65736461790054687572A7
:1033660073646179004672696461790053617475AA
:0C337600726461790053756E6461790027
:00000001FF
