:100000000C9479030C94A1030C94A1030C94A10308
:100010000C94A1030C94A1030C94A1030C94A103D0
:100020000C94A1030C94A1030C94A1030C94A103C0
:100030000C94A1030C94A1030C94A1030C94A103B0
:100040000C94DB080C94A1030C9424100C94E90F7D
:100050000C94A1030C94A1030C94A1030C94A10390
:100060000C94FC0D0C94A103D90A390B390B3D0AF1
:10007000390B7D0ABC0AB90A390B390B390BB30AA3
:100080008C0A480A390B390B390B390B600A390BCA
:100090000E0B390B390B390BAB0A390B390B390BFA
:1000A000390B390B390B390BE10A390B390B2C0A97
:1000B000390B390BCA0ABF0AED0A2F0A390B320A6B
:1000C000770A7A0A390B390B390B390BF30A9D0A77
:1000D000390B390B4B0A390BAE0A530AB901F2033B
:1000E000B901F303B901F403B901F503B901F6034A
:1000F000B901F703B901F903B801FA03B801FB0329
:10010000B801FC03B701FD03B701FF03B60100040A
:10011000B5010104B5010304B4010404B4010504EC
:10012000B3010704B2010804B1010A04B0010B04D1
:10013000AF010D04AE010E04AD011004AC011104B9
:10014000AB011304AA011404A9011604A8011704A1
:10015000A7011904A5011B04A4011C04A3011E048A
:10016000A1011F04A00121049F0123049D01240477
:100170009C0126049A0127049801290497012B0465
:1001800095012C0494012E0492012F049001310456
:100190008F0133048D0134048B0136048901380446
:1001A0008801390486013B0484013C0482013E0439
:1001B000800140047E0141047C0143047A0145042E
:1001C00078014604770148047501490473014B0422
:1001D00070014D046E014E046C0150046A0151041B
:1001E0006801530466015504640156046201580411
:1001F00060015A045E015B045C015D0459015E0408
:100200005701600455016204530163045101650400
:100210004F0166044C0168044A016A0448016B04FA
:1002200046016D0444016F04410170043F017204F2
:100230003D0173043B0175043801770436017804ED
:1002400034017A0432017C0430017D042D017F04E5
:100250002B018004290182042701840424018504E0
:1002600022018704200189041E018A041C018C04D8
:1002700019018E04170190041501910413019304D0
:10028000110195040E0196040C0198040A019A04C8
:1002900008019B0406019D0404019F040201A104BE
:1002A0000001A204FE00A404FB00A604F900A704B8
:1002B000F700A904F500AB04F300AD04F100AE04AF
:1002C000F000B004EE00B204EC00B304EA00B504A0
:1002D000E800B704E600B904E400BA04E200BC0494
:1002E000E100BE04DF00BF04DD00C104DC00C30484
:1002F000DA00C404D800C604D700C804D500C90475
:10030000D400CB04D200CC04D100CE04CF00CF0463
:10031000CE00D104CD00D204CB00D404CA00D50451
:10032000C900D704C800D804C600D904C500DB043E
:10033000C400DC04C300DD04C200DE04C200E0042B
:10034000C100E104C000E204BF00E304BF00E40414
:10035000BE00E504BD00E604BD00E704BC00E70400
:10036000BC00E804BC00E904BB00EA04BB00EA04EA
:10037000BB00EB04BB00EB04BB00EC04BB00EC04D3
:10038000BB00EC04BB00ED04BB00ED04BB00ED04BE
:10039000BC00ED04BC00ED04BC00ED04BD00ED04A8
:1003A000BD00ED04BE00ED04BE00ED04BF00EC0492
:1003B000C000EC04C100EB04C100EB04C200EA047D
:1003C000C300EA04C400E904C500E904C600E80467
:1003D000C700E704C800E604C900E504CB00E40454
:1003E000CC00E304CD00E204CE00E104D000E00440
:1003F000D100DF04D200DE04D400DC04D500DB042D
:10040000D700DA04D800D804DA00D704DB00D5041A
:10041000DD00D404DE00D204E000D104E100CF040A
:10042000E300CD04E400CC04E600CA04E800C804FC
:10043000E900C704EB00C504EC00C304EE00C104EE
:10044000F000BF04F100BD04F300BC04F500BA04E1
:10045000F600B804F800B604FA00B404FB00B204D5
:10046000FD00B004FF00AE040001AC040201A904C9
:100470000401A7040501A5040701A3040801A104C0
:100480000A019F040C019D040D019B040F019804B7
:1004900011019604120194041401920415019004B0
:1004A00017018D0419018B041A0189041C018704AA
:1004B0001D0185041F0182042101800422017E04A4
:1004C00024017C042501790427017704280175049F
:1004D0002A0173042C0170042D016E042F016C0499
:1004E00030016A0432016704330165043501630495
:1004F0003601610438015E0439015C043B015A0491
:100500003D0158043E01550440015304410151048A
:1005100043014F0444014D0446014A044701480485
:10052000490146044A0144044C0142044D0140047F
:100530004F013D0450013B0452013904530137047B
:100540005501350457013304580131045A012F0471
:100550005B012D045D012B045E0129046001270469
:1005600061012504630123046401210466011F0461
:1005700067011D0469011C046B011A046C01180455
:100580006E0116046F011404710113047201110449
:1005900074010F0475010E0477010C0479010A043B
:1005A0007A0109047C0107047D0106047F0104042B
:1005B0008001030482010104830100048501FE031C
:1005C0008601FD038801FC038A01FB038B01F9030B
:1005D0008D01F8038E01F7039001F6039101F503F5
:1005E0009201F4039401F3039501F2039701F103DF
:1005F0009801F0039A01EF039B01EE039C01ED03C8
:100600009E01ED039F01EC03A001EB03A201EB03AC
:10061000A301EA03A401EA03A501E903A701E90391
:10062000A801E903A901E803AA01E803AB01E80373
:10063000AC01E803AD01E803AE01E803AF01E80354
:10064000B001E803B101E803B201E803B201E80335
:10065000B301E803B401E903B501E903B501E90316
:10066000B601EA03B601EA03B701EB03B701EB03F6
:10067000B801EC03B801EC03B801ED03B901EE03D6
:10068000B901EF03B901EF03B901F003B901F103B7
:10069000B901F20300000007000201000003040694
:1006A00000000000000000000000000025002800FD
:1006B0002B0000000000240027002A00040404048A
:1006C00004040404020202020202030303030303FC
:1006D00001020408102040800102040810200102D9
:1006E000040810201F1C1F1E1F1E1F1F1E1F1E1F61
:1006F000C01311241FBECFEFD8E0DEBFCDBF13E083
:10070000A0E0B1E0EEEDF5E302C005900D92AE3150
:10071000B107D9F724E0AEE1B3E001C01D92A63ADB
:10072000B207E1F713E0C9E7D3E004C02197FE0167
:100730000E94961AC837D107C9F70E945E100C9420
:1007400011140C9400000895CF92DF92EF92FF9263
:100750000F931F93CF93DF936C01EB017B01E40EAA
:10076000F51E00E010E0CE15DF0561F06991D601BD
:10077000ED91FC910190F081E02DC6010995080FE3
:10078000191FF1CFC801DF91CF911F910F91FF90F9
:10079000EF90DF90CF9008953FB7F89480912303B6
:1007A00090912403A0912503B091260326B5A89B20
:1007B00005C02F3F19F00196A11DB11D3FBFBA2FF3
:1007C000A92F982F8827820F911DA11DB11DBC0153
:1007D000CD0142E0660F771F881F991F4A95D1F718
:1007E00008950F931F93CF93DF93EC018881998134
:1007F000009729F02A813B812617370788F48B015F
:100800006F5F7F4F0E94A215009761F099838883E4
:100810001B830A832C813D81232B11F4FC01108260
:1008200081E001C080E0DF91CF911F910F91089589
:10083000EF92FF920F931F93CF93DF93FC012481DC
:1008400035816115710511F480E019C0411551051C
:10085000A9F07B01EC018A01020F131FB8010E946D
:10086000F103882389F3288139818C819D81B70127
:10087000820F931F0E9480161D830C8381E0DF91FD
:10088000CF911F910F91FF90EF900895CF93DF9339
:10089000EC0188819981009711F00E940A15198254
:1008A00018821D821C821B821A82DF91CF910895CB
:1008B000CF93DF93EC016115710561F0FB010190AD
:1008C0000020E9F73197AF01461B570B0E9418042F
:1008D000811103C0CE010E944604CE01DF91CF9169
:1008E0000895CF93DF93EC01FB0144815581608132
:1008F00071810E941804811103C0CE010E94460438
:10090000CE01DF91CF910895EF92FF920F931F9345
:10091000CF93DF93EC017B018A01BA010E94F103BE
:10092000811104C0CE010E94460407C01D830C83C0
:10093000B701888199810E948016CE01DF91CF9105
:100940001F910F91FF90EF900895FC01118210828A
:10095000138212821582148216826115710551F07C
:10096000FB0101900020E9F73197AF01461B570BBF
:100970000C9484040895FC01808191810C940A15E3
:10098000EF92FF920F931F93CF93DF93CDB7DEB714
:1009900062970FB6F894DEBF0FBECDBF8C01CB01BE
:1009A000F80111821082138212821582148216823B
:1009B00050E09E012F5F3F4F7901B9010E9414144E
:1009C000F70101900020E9F73197AF014E195F0957
:1009D000B701C8010E94840462960FB6F894DEBF86
:1009E0000FBECDBFDF91CF911F910F91FF90EF9080
:1009F0000895EF92FF920F931F93CF93DF93CDB79C
:100A0000DEB729970FB6F894DEBF0FBECDBF8C01BD
:100A1000862FF801118210821382128215821482AD
:100A2000168250E09E012F5F3F4F7901B90190E09F
:100A30000E942A14F70101900020E9F73197AF01D5
:100A40004E195F09B701C8010E94840429960FB6A8
:100A5000F894DEBF0FBECDBFDF91CF911F910F91F4
:100A6000FF90EF9008956F927F928F929F92AF9236
:100A7000BF92CF92DF92EF92FF920F931F93CF938B
:100A8000DF93CDB7DEB7EE970FB6F894DEBF0FBE9B
:100A9000CDBFEBAAFCAA0DAB1EAB2FAB38AF49AF55
:100AA0005AAF6BAF7CAF8DAF9EAFBE016D5C7F4F19
:100AB000CE0149960E94490F898C9A8C7B8CAC8C14
:100AC000BD8C6E8CC98CDA8CE72CFA2C0B2D162D74
:100AD0002F8D38A149A15AA16BA17CA1CE01C3964B
:100AE0000E947909BC01CE010D960E94A50465EA19
:100AF00071E0CE0101960E94A504BE01635F7F4FA5
:100B0000CE0101960E9471046CE671E00E945804C7
:100B10000E944309CE0101960E94BB04CE010D96AE
:100B20000E94BB0401E00B0D0D8FC98CDA8CEB8C9D
:100B3000FC8C1E8D2F8D38A149A15AA16BA17CA1DF
:100B4000CE01C3960E947909BC01CE010D960E9488
:100B5000A50469EB71E0CE0101960E94A504BE01D7
:100B6000635F7F4FCE0101960E9471046CE671E0D5
:100B70000E9458040E944309CE0101960E94BB04C2
:100B8000CE010D960E94BB048CE0FE01F396DE01BF
:100B90001D9601900D928A95E1F7BD8E8CE0FE01C5
:100BA0007996DE01119601900D928A95E1F72A2D32
:100BB000472DB401CE010D960E94270F2DE631E09E
:100BC000829EB001839E700D929E700D11246D5E09
:100BD0007D43860F971FBC0180E090E00E94E916DC
:100BE0002AEB30EA44E050E40E944F170E94BA1604
:100BF000862D860F6CE30E94621AB80E9A82898253
:100C00007B82AC82BD829E838CE0FE013196DE0148
:100C1000599601900D928A95E1F7C82C9A8E898E8B
:100C20007B8EAC8E9E8FDA8CE72CFA2C0B2D192F35
:100C30002F8D38A149A15AA16BA17CA1CE01C396E9
:100C40000E947909BC01CE018C960E94A50462E73E
:100C500071E0CE0185960E94A504BE01645D7F4FC0
:100C6000CE0185960E9471046CE671E00E945804E2
:100C70000E944309CE0185960E94BB04CE018C964A
:100C80000E94BB0401E00B0DC98CDA8CEB8CFC8C50
:100C90001E8D2F8D38A149A15AA16BA17CA1CE0137
:100CA000C3960E947909BC01CE018C960E94A504CE
:100CB00065E871E0CE0185960E94A504BE01645DE1
:100CC0007F4FCE0185960E9471046CE671E00E9410
:100CD00058040E944309CE0185960E94BB04CE01B0
:100CE0008C960E94BB04EE960FB6F894DEBF0FBE42
:100CF000CDBFDF91CF911F910F91FF90EF90DF90CB
:100D0000CF90BF90AF909F908F907F906F900895FD
:100D1000CF92DF92EF92FF920F931F93CF93DF93C7
:100D2000CDB7DEB765970FB6F894DEBF0FBECDBF67
:100D30008C01CB016CE370E00E946E1AD62E7C0110
:100D4000C62E4AE0682FCE010F960E94F9048AE071
:100D5000E816F10428F09BEAE92E91E0F92E04C090
:100D600088E9E82E81E0F82E4AE06D2DCE01089644
:100D70000E94F904E9E0EC1518F46BEA71E002C096
:100D800068E971E0CE0101960E94A504BE01685F8A
:100D90007F4FCE0101960E9471046AE971E00E94C2
:100DA0005804B7010E945804BE01615F7F4F0E9442
:100DB0007104F8011182108213821282158214824A
:100DC00016820817190759F0FC01608171816115BD
:100DD000710529F044815581C8010E948404CE0127
:100DE00001960E94BB04CE0108960E94BB04CE016E
:100DF0000F960E94BB04C80165960FB6F894DEBF3B
:100E00000FBECDBFDF91CF911F910F91FF90EF905B
:100E1000DF90CF9008958F929F92AF92BF92CF9222
:100E2000DF92EF92FF920F931F93CF93DF93CDB793
:100E3000DEB7E9970FB6F894DEBF0FBECDBFEEA6C2
:100E4000FFA608AB19AB2AAB3BAB4CAB5DAB6EABB3
:100E50007FAB88AF99AFBE01625D7F4FCE010D962B
:100E60000E94490F8CE0FE01BE96DE0111960190B2
:100E70000D928A95E1F70D851E85FF84E888D98853
:100E8000CA882E2D4F2DB801CE0101960E94270F42
:100E90002DE631E0029FF001039FF00D129FF00D4F
:100EA0001124ED5EFD438E0F9F1FBC0180E090E09A
:100EB0000E94E9162AEB30EA44E050E40E944F1702
:100EC0000E94BA168C2D860F6CE30E94621AA92E1E
:100ED000B82EBD0C2E2D4F2DB801CE018E960E943E
:100EE000270F880F991F880F991FFC01E452FF4FAD
:100EF000E590F490FC01E252FF4FC590D490B6010A
:100F0000CE0187960E948806B701CE0180960E9486
:100F100088066CE971E0CE0149960E94A504BE01E5
:100F2000605E7F4FCE0149960E9471046CEA71E0C9
:100F30000E945804BE01695D7F4F0E9471040E94A7
:100F40004309CE0149960E94BB04CE0180960E94BF
:100F5000BB04CE0187960E94BB04B601645C7F4F40
:100F6000CE0187960E948806B701645C7F4FCE0150
:100F700080960E94880660EB71E0CE0149960E943F
:100F8000A504BE01605E7F4FCE0149960E947104A8
:100F90006CEA71E00E945804BE01695D7F4F0E94B7
:100FA00071040E944309CE0149960E94BB04CE0100
:100FB00080960E94BB04CE0187960E94BB040A2D36
:100FC00010E08CE3B89E000D111D112457018DE235
:100FD000A80EB11C46018FE0881A9108B401CE0119
:100FE00087960E948806B501CE0180960E948806E9
:100FF00060EC71E0CE0149960E94A504BE01605EDE
:101000007F4FCE0149960E9471046CEA71E00E9404
:101010005804BE01695D7F4F0E9471040E9443091C
:10102000CE0149960E94BB04CE0180960E94BB046B
:10103000CE0187960E94BB04B601635D7F4FCE014F
:1010400087960E948806B70167597F4FCE01809628
:101050000E94880666ED71E0CE0149960E94A504C3
:10106000BE01605E7F4FCE0149960E9471046CEA1A
:1010700071E00E945804BE01695D7F4F0E947104B7
:101080000E944309CE0149960E94BB04CE0180967E
:101090000E94BB04CE0187960E94BB04A016B10635
:1010A00020F481E00815190508F080E0E9960FB6F4
:1010B000F894DEBF0FBECDBFDF91CF911F910F918E
:1010C000FF90EF90DF90CF90BF90AF909F908F9068
:1010D000089590E0FC01EC56F94F3491FC01E05387
:1010E000F94F2491FC01E454F94FE491EE2309F403
:1010F0003BC0332339F1333091F038F43130A9F06B
:10110000323001F584B58F7D12C0363091F0373022
:10111000A1F03430B9F4809180008F7D03C08091BC
:1011200080008F77809380000DC084B58F7784BD59
:1011300009C08091B0008F7703C08091B0008F7D8F
:101140008093B000F0E0EE0FFF1FE855F94FA59136
:10115000B4918FB7F894EC91611103C020952E23C0
:1011600001C02E2B2C938FBF0895CF92DF92EF9268
:10117000FF92CF93DF936B017C010E94CC03EB01C4
:10118000C114D104E104F10479F00E94CC036C1B7A
:101190007D0B683E7340A0F381E0C81AD108E108D6
:1011A000F108C851DC4FECCFDF91CF91FF90EF9069
:1011B000DF90CF9008951F920F920FB60F921124D7
:1011C0002F933F938F939F93AF93BF9380911F0370
:1011D00090912003A0912103B091220330911E032E
:1011E00023E0230F2D3720F40196A11DB11D05C06A
:1011F00026E8230F0296A11DB11D20931E038093A4
:101200001F0390932003A0932103B09322038091A6
:10121000230390912403A0912503B0912603019606
:10122000A11DB11D8093230390932403A093250354
:10123000B0932603BF91AF919F918F913F912F91D2
:101240000F900FBE0F901F9018950F931F93CF9381
:10125000DF93C5E3D4E0E881F9810190F081E02DCE
:101260006DE0CE0109958C01E881F9810190F08152
:10127000E02D6AE0CE010995800F911FDF91CF919B
:101280001F910F910895EF92FF920F931F93CF93A9
:10129000DF937C01C0E0D0E000E010E0F701848142
:1012A0009581C817D907D0F4E0913504F091360440
:1012B0000190F081E02DD7012D913C912115310550
:1012C00029F0D901AC0FBD1F6C9101C060E085E32E
:1012D00094E00995080F191F2196E0CF0E94250977
:1012E000800F911FDF91CF911F910F91FF90EF9091
:1012F00008952F923F924F925F926F927F928F92BA
:101300009F92AF92BF92CF92DF92EF92FF920F9394
:101310001F93CF93DF93CDB7DEB7C052D1400FB646
:10132000F894DEBF0FBECDBFC45EDE4F99838883C5
:10133000CC51D140C55FDE4FC882CB50D140C45F95
:10134000DE4FD882CC50D140C05FDE4F1883C051F1
:10135000D140CF5EDE4F2883C151D140CD5EDE4FFC
:101360004883C351D140CC5EDE4F5883C451D14035
:10137000CB5EDE4F6883C551D140CA5EDE4F7883B5
:10138000C651D140C55FDE4F88809980CB50D14097
:101390001E2DE32E1982432E512CC201079667E0C1
:1013A00070E00E94821AC25EDE4F8883CE51D14027
:1013B000392E8F2D6AE00E94621AC95EDE4F988333
:1013C000C751D14085E7A82E82E0B82E6E01D39494
:1013D000340133E063227724812F90E0DC01AD51AA
:1013E000B94FC15EDE4FB983A883CF51D1402224CB
:1013F0002A94210E822D90E0880F991FFC01EA5D4E
:10140000FE4FC85EDE4FF983E883C851D140EA94AD
:101410008E2D90E0880F991F9C01225C3E4FC65E86
:10142000DE4F39832883CA51D140B501D501ED91F2
:101430005D01EE2309F426C18E2FEE0F990BAA0B46
:10144000BB0BFC01E154F109EA33F10508F011C1CD
:10145000EC5CFF4F0C94961A1F92FF92CBC01F9228
:10146000FF92A4C036E03E1508F453C0C65EDE4FBE
:10147000A881B981CA51D14049C0B6E0BE1508F46F
:1014800057C0C65EDE4FE881F981CA51D1404DC0D8
:101490005F924F928BC03F92C25EDE4F3881CE5139
:1014A000D1403F9383C02F2D412FB401C45EDE4F46
:1014B00088819981CC51D1400E94270F9F9375C09C
:1014C000C95EDE4F3881C751D140313039F03230FA
:1014D00041F0333049F066E672E07AC06EEB72E0BC
:1014E00077C063EF71E074C063E672E071C01F9271
:1014F0001F9380C01F921F9359C08BE0821548F044
:10150000C85EDE4FA881B981C851D1406D917C91F0
:101510005FC06BE572E05CC0BBE0B21548F0C85E2E
:10152000DE4FE881F981C851D1406081718102C0EC
:101530006BE572E043E050E09EC0C15EDE4FE881A3
:10154000F981CF51D1408491123071F56114710449
:1015500009F496C029C09F928F9228C0C401805D73
:1015600097409F9346C081E061147104E9F080E0E8
:101570001BC01F920F933EC01F920F9317C00023F2
:1015800029F00D3028F084EF800F32C08CE030C09D
:10159000802F2EC0002329F00D3028F084EF800F1B
:1015A00003C08CE001C0802F1F928F9388E892E0E7
:1015B00023C00C3018F06CE672E00AC069E672E0F5
:1015C00007C00C3018F06FE672E002C062E772E00C
:1015D000CE0101960E94751628CFC05FDE4F88812C
:1015E000C051D14005C0CF5EDE4F8881C151D1408E
:1015F0001F928F9383E892E09F938F93DF92CF9215
:101600000E949716B601CE0101960E9475160F90A2
:101610000F900F900F900F900F9007CFCA5EDE4F84
:101620008881C651D1408F93CB5EDE4F8881C551F2
:10163000D1408F93CC5EDE4F8881C451D1408F93CF
:10164000CD5EDE4F8881C351D1408F938BE892E00D
:101650009F938F93DF92CF920E949716B601CE018F
:1016600001960E9475160FB6F894DEBF0FBECDBF6F
:10167000DCCE41E050E0CE0101960E948716D5CE27
:101680008F5F92CFCE010196C05EDE4F0FB6F89409
:10169000DEBF0FBECDBFDF91CF911F910F91FF90A5
:1016A000EF90DF90CF90BF90AF909F908F907F9002
:1016B0006F905F904F903F902F9008952091A003DE
:1016C00090919F03213208F046C080917C038111E4
:1016D000FCCF32E030937C0331E030937B033FEF6B
:1016E00030937A031092790320937803AFE7B3E045
:1016F00048E553E0FA013E2F341B321718F43D91B0
:101700003193F9CF1092570320915703990F922BE1
:101710009093570390915603913041F410925603E1
:10172000909157039093BB0095EC01C095EE909378
:10173000BC0090917C039230E1F390917A039F3F3B
:1017400079F080917A03803241F080917A0380337E
:1017500031F084E005C081E003C082E001C083E095
:1017600010927E031092A00310927D030895909131
:101770007C039111FCCF813208F080E291E09093DC
:101780007C0390937B032FEF20937A0310927903CD
:10179000280F209378039093570390915703906DEF
:1017A0009093570390915603913041F41092560351
:1017B000909157039093BB0095EC01C095EE9093E8
:1017C000BC0090917C039130E1F3909179039817DC
:1017D00010F480917903A8E5B3E026E333E0F90142
:1017E0009E2F921B981718F49D919193F9CF109208
:1017F00035038093340308952F923F924F925F9266
:101800006F927F928F929F92AF92BF92CF92DF9210
:10181000EF92FF920F931F93CF93DF93CDB7DEB775
:1018200028970FB6F894DEBF0FBECDBF4C015B0109
:10183000C12CD12C37E0232E312C00E010E0CA144B
:10184000DB040CF048C021E08216910421F4C101B0
:10185000801B910B01C0C801FE0131963F01E12CB4
:10186000F12C880F991FFC01EA5EFE4F40805180E9
:10187000EEE0F1E0DE01119688E001900D928A958C
:10188000E1F7F301619171913F0164217521E091CC
:101890005704F0915804EE0DFF1D80810E946908E5
:1018A000F2E0EF0EF11C28E0E216F10409F7609176
:1018B000590470915A04072E000C880B990B0E9452
:1018C000B5080F5F1F4F0830110509F0BCCF3FEF7F
:1018D000C31AD30AB2CFE0915704F0915804E00F35
:1018E000F11F60E080810E9469080E5F1F4F083081
:1018F000110589F728960FB6F894DEBF0FBECDBF4D
:10190000DF91CF911F910F91FF90EF90DF90CF90DB
:10191000BF90AF909F908F907F906F905F904F900F
:101920003F902F90089585ED8093BC008091BC007E
:1019300084FDFCCF10927C0308950895E091350357
:1019400080913403E81730F4F0E0EA5CFC4F8081CA
:1019500090E008958FEF9FEF089590913503809167
:101960003403981750F4E92FF0E0EA5CFC4F208133
:1019700030E09F5F9093350302C02FEF3FEFC90126
:1019800008958091340390E020913503821B9109E2
:101990000895CF92DF92EF92FF920F931F93CF9310
:1019A000DF937C018A0180917D03882389F0EB011C
:1019B0006B01C40ED51ECC15DD05F1F06991D70180
:1019C000ED91FC910190F081E02DC7010995F3CFD5
:1019D000842F413288F490917C03943069F44093D1
:1019E0007D04FB012BE534E0D9019A2F921B981757
:1019F00018F491919D93F9CFC801DF91CF911F9178
:101A00000F91FF90EF90DF90CF90089520917D038C
:101A10002223C9F02091A003203240F021E030E0E1
:101A2000FC013383228380E090E0089580917E035F
:101A3000E82FF0E0E158FC4F60838F5F80937E03D6
:101A40008093A00309C080917C03843029F481E055
:101A500080937D0460935B0481E090E00895DB0156
:101A6000A05DB74030E0E4EEF6E081E08E1B982FF9
:101A70009E0F941728F49491290F311D3196F7CFBA
:101A8000423029F4CD0183709927892BA9F04DE6C6
:101A900051E0A49FC001A59F900DB49F900D11240B
:101AA0006D5C77407695679576956795860F971F5D
:101AB0000197820F931F08952F5F3F4FE8CF0F9339
:101AC0001F93CF93DF93FC01A685B7858D01005C42
:101AD0001F4FE8018881998101968F739927AD0185
:101AE0004E5B5F4FEA012881398182179307D1F35A
:101AF000E80128813981A20FB31F6C93A685B785B1
:101B0000A05CBF4F11969C938E93A689B7892C91A8
:101B100081E090E0078C02C0880F991F0A94E2F7D9
:101B2000822B8C9381E081A30488F589E02D80814C
:101B30008064808381E090E0DF91CF911F910F91CD
:101B40000895FC0181A1882329F0A489B5898C918D
:101B500086FFFBCF11A20895FC01A485B585FD0188
:101B6000E05CFF4F2081318132968081918128177E
:101B7000390779F080819181A80FB91F8C9120815C
:101B800031812F5F3F4F2F7333273183208390E0C4
:101B900008958FEF9FEF0895DC011C96ED91FC9165
:101BA0001D97DF01A05CBF4F2D913C9111971296BC
:101BB0008D919C9111972817390739F08D919C913F
:101BC000E80FF91F808190E008958FEF9FEF08954F
:101BD000FC0124853585F901E05CFF4F808191810E
:101BE000329620813181821B930B8F739927089540
:101BF00085E394E00C94E80D1F920F920FB60F92BC
:101C000011242F933F934F935F936F937F938F9301
:101C10009F93AF93BF93EF93FF938091B900887F19
:101C2000803609F49CC068F5883209F45BC090F4F2
:101C3000803109F454C038F4882309F4F3C08830A3
:101C400009F44DC0F3C0883109F44CC0803209F466
:101C50005DC0ECC0803409F468C048F4803309F4F6
:101C600055C0883309F0E2C080937A03D5C080352F
:101C700009F44FC0883509F45DC0883409F0D6C036
:101C8000D3C0883909F4C4C0A8F4883709F467C000
:101C900038F4883609F463C0803709F460C0C6C0E0
:101CA000883809F4B5C0803909F45FC0803809F07C
:101CB000BDC05BC0803B09F483C038F4803A09F4AE
:101CC00066C0883A09F47CC0B1C0803C09F4A4C065
:101CD000883C09F4A1C0883B09F487C0A7C0809163
:101CE000570310C09091790380917803981770F58D
:101CF000E091790381E08E0F80937903F0E0E85A58
:101D0000FC4F80818093BB0085EC83C080937A0375
:101D10008BC0E091790381E08E0F809379038091ED
:101D2000BB00F0E0E85AFC4F8083909179038091EA
:101D300078036BC0E091790381E08E0F8093790383
:101D40008091BB00F0E0E85AFC4F808380917B03D8
:101D500081116AC081E08093560384EA5EC083E00B
:101D600080937C031092A104CFCF8091A104803294
:101D700008F04EC0E091A10481E08E0F8093A10491
:101D80008091BB00F0E0EF57FB4F8083BDCF809187
:101D9000A104803230F4E091A104F0E0EF57FB4F52
:101DA00010820E94930C6091A10470E0E0917F0486
:101DB000F091800481E894E009951092A1042CC070
:101DC00084E080937C0310927E0410927D04E09165
:101DD0007B04F0917C04099580917D04811105C0FC
:101DE00081E080937D0410925B04E0917E0481E0A9
:101DF0008E0F80937E04F0E0E55AFB4F8081809344
:101E0000BB0090917E0480917D04981708F47CCFEC
:101E100085E88093BC000AC085EC8093BC001092DA
:101E20007C0304C010927A030E94930CFF91EF91FF
:101E3000BF91AF919F918F917F916F915F914F91E2
:101E40003F912F910F900FBE0F901F901895CF923A
:101E5000DF92EF92FF920F931F93CF93DF93EC01EA
:101E60008B01D42EC22E21E041E00E942F0D7C0177
:101E70002C2D4D2DB801CE010E942F0D8E199F09DA
:101E8000DF91CF911F910F91FF90EF90DF90CF9056
:101E90000895AF92BF92CF92DF92EF92FF920F938D
:101EA0001F93CF93DF93CDB7DEB72E970FB6F8947D
:101EB000DEBF0FBECDBF7C018B0181E080937D032F
:101EC00088E680939F0310927E031092A00360E047
:101ED00081EA93E00E94060D0E945E0B87E090E08D
:101EE0000E94B70B90913403809135039817F1F35A
:101EF0005E018FE0A80EB11CFE0131966F0181EAF0
:101F000093E00E94AD0C282F82958F702F70FAE01D
:101F10008F9F200D112430E0F501329322935F0151
:101F2000EC15FD0561F70E945E0B69817A816053B3
:101F3000784FF801718360834B8142832D81238325
:101F40008F818783B984B482CB84C582DD84D682B5
:101F5000C8010E942F0D9C01A8E1B0E00E949C1ACC
:101F60009B01AC012B0D311D411D511DACE3B0E0B7
:101F70000E94AB1A9B01AC012C0D311D411D511D5E
:101F80000E94AB1ADC01CB018D0D911DA11DB11D6D
:101F900080599A4CA249B74CF80180879187A28753
:101FA000B3878CE0D70101900D928A95E1F7C701C4
:101FB0002E960FB6F894DEBF0FBECDBFDF91CF9146
:101FC0001F910F91FF90EF90DF90CF90BF90AF9057
:101FD00008951F920F920FB60F9211242F933F93E3
:101FE0008F939F93EF93FF932091ED033091EE0336
:101FF0008091EF039091F0032817390731F4809115
:10200000C1008F7D8093C10014C0E091EF03F09177
:10201000F003E355FC4F20818091EF039091F00392
:1020200001968F7399279093F0038093EF03209389
:10203000C600FF91EF919F918F913F912F910F904B
:102040000FBE0F901F9018951F920F920FB60F9210
:1020500011242F934F935F938F939F93EF93FF934D
:102060008091C00082FD1CC02091C6008091310487
:102070009091320401968F739927409133045091C7
:1020800034048417950771F0E0913104F091320423
:10209000EF50FC4F2083909332048093310402C0B0
:1020A0008091C600FF91EF919F918F915F914F9129
:1020B0002F910F900FBE0F901F901895CF93DF9325
:1020C000CDB7DEB765970FB6F894DEBF0FBECDBFB4
:1020D000789484B5826084BD84B5816084BD85B503
:1020E000826085BD85B5816085BD80916E0081600F
:1020F00080936E00109281008091810082608093B5
:1021000081008091810081608093810080918000B6
:102110008160809380008091B10084608093B100E1
:102120008091B00081608093B00080917A008460DB
:1021300080937A0080917A00826080937A00809107
:102140007A00816080937A0080917A008068809321
:102150007A001092C100E0914904F0914A0481E0B4
:1021600090E09C010090550402C0220F331F0A9496
:10217000E2F72083E0914504F09146041082E0915B
:102180004704F09148042FEC208310925604E0910C
:102190004B04F0914C0440819C010090510402C01A
:1021A000220F331F0A94E2F7242B2083E0914B0483
:1021B000F0914C0440819C010090520402C0220F17
:1021C000331F0A94E2F7242B2083E0914B04F09113
:1021D0004C0440819C010090530402C0220F331F25
:1021E0000A94E2F7242B2083E0914B04F0914C04F5
:1021F00020810090540402C0880F991F0A94E2F7CE
:1022000080958223808310923503109234031092BC
:102210007E031092A00310927C0311E010937B03C5
:102220001092560361E082E10E94690861E083E157
:102230000E9469088091B9008E7F8093B9008091D7
:10224000B9008D7F8093B90088E48093B80085E45D
:102250008093BC0010937D0388E680939F031092C7
:102260007E031092A0036EE081EA93E00E94060DC7
:102270000E945E0B81E090E00E94B70B90913403C6
:10228000809135039817F1F381EA93E00E94AD0C39
:10229000182F0E945E0BDD24D394D0927D0388E634
:1022A00080939F0310927E031092A0036EE081EA58
:1022B00093E00E94060D612F6B7381EA93E00E9408
:1022C000060D0E945E0B80EDE82E8093280387E0C8
:1022D00080932903D0922A03D0922B0310922C03CF
:1022E00010922D0310922E0386E080932F0380E737
:1022F000682F8093300385E3809331038DE68093CC
:10230000320388E38093330377E0F72E01E011E096
:1023100020E030E040E056E075E38DE698E30E946F
:102320000B078111D092270320E030E0E0915704A1
:10233000F0915804E20FF31F808191819927FC01ED
:10234000E053F94F4491FC01E454F94F8491882300
:1023500099F090E0880F991FFC01EE54F94FA59178
:10236000B491FC01E855F94F859194918FB7F89499
:10237000EC91E42BEC938FBF2E5F3F4F283031055B
:10238000A9F649E050E06CEE71E085E394E00E942C
:10239000A4030E942509CE0101966C01E090280358
:1023A000F090290300912A0310912B0320912C0314
:1023B00030912D0340912E0350912F0360913003F3
:1023C0007091310380913203909133030E94330561
:1023D000E0902803F090290300912A0310912B0329
:1023E00020912C0330912D0340912E0350912F0307
:1023F00060913003709131038091320390913303E7
:102400000E940B07B82EE0902803F090290300915A
:102410002A0310912B0320912C0330912D0340911E
:102420002E0350912F0360913003709131038091FE
:102430003203909133030E940B074AE06B2DC601D3
:102440000E94F90466EF71E0CE0108960E94A5048F
:10245000B601CE0108960E9471040E944309CE0184
:1024600008960E94BB04C6010E94BB0480E090E075
:102470000E945F14082F10E04AE068E770E0C60190
:102480000E94C0044AE0B801CE0108960E94C00430
:102490006EEF71E0CE010F960E94A504BE01685F49
:1024A0007F4FCE010F960E94710465E072E00E949A
:1024B0005804B6010E9471040E944309CE010F9690
:1024C0000E94BB04CE0108960E94BB04C6010E9474
:1024D000BB04A0902703B11003C00115110519F426
:1024E000AA2009F4DBC0B12C4AE0B801CE0108965D
:1024F0000E94C00469E072E0CE010F960E94A5041C
:10250000BE01685F7F4FCE010F960E9471046BE1A0
:1025100072E00E9458047C014AE0B601C5010E94A5
:102520001F14F60101900020E9F73197AF014C1913
:102530005D09B601C7010E941804811103C0C701DB
:102540000E944604C7010E944309CE010F960E94D3
:10255000BB04CE0108960E94BB040150110908F487
:102560003CC063E370E080E090E00E94FC0B602FD1
:1025700080E090E00E9467144AE068E770E0C601DE
:102580000E94C00480E090E00E945F14682F70E019
:102590004AE0CE0108960E94C0046EEF71E0CE01C1
:1025A0000F960E94A504BE01685F7F4FCE010F9673
:1025B0000E9471046AE272E00E945804B6010E940F
:1025C00071040E944309CE010F960E94BB04CE0104
:1025D00008960E94BB04C601BECF809127038823C2
:1025E00009F4C5C08CE3A82EB12C4AE06CE370E07E
:1025F000C6010E94C0044AE0B501CE0108960E94BF
:10260000C0046CE272E0CE010F960E94A504BE01E8
:10261000685F7F4FCE010F960E94710465E072E003
:102620000E945804B6010E94710464E472E00E94A2
:1026300058040E944309CE010F960E94BB04CE01AC
:1026400008960E94BB04C6010E94BB04E0902803C8
:10265000F090290300912A0310912B0320912C0361
:1026600030912D0340912E0350912F036091300340
:102670007091310380913203909133030E943305AE
:1026800068EE73E080E090E00E94B50881E0A81A4F
:10269000B10809F0AACF1092270369C0BB2009F442
:1026A00066C0083711050CF062C088E790E07C0135
:1026B000E01AF10A4AE0B701C6010E94C00467E4CB
:1026C00072E0CE0108960E94A504B601CE010896DC
:1026D0000E9471040E944309CE0108960E94BB0427
:1026E000C6010E94BB04F12C0F5F1F4F63E370E033
:1026F00081E090E00E94FC0B6F2D600F80E090E085
:102700000E9467144AE068E770E0C6010E94C004B6
:1027100080E090E00E945F14682F70E04AE0CE01F4
:1027200008960E94C0046EEF71E0CE010F960E94E1
:10273000A504BE01685F7F4FCE010F960E94710411
:102740006AE272E00E945804B6010E9471040E947D
:102750004309CE010F960E94BB04CE0108960E9449
:10276000BB04C6010E94BB04F394FE10BFCF60ED12
:1027700077E080E090E00E94B5080E94F80D0ECE50
:10278000E1EAF3E01382128288EE93E0A0E0B0E089
:1027900084839583A683B78320E531E0318320834A
:1027A000E5E3F4E01382128284839583A683B783E2
:1027B00080E691E09183808381EF93E09587848721
:1027C0008DEA93E09787868785EC90E0918B808BEC
:1027D00084EC90E0938B828B80EC90E0958B848BE3
:1027E00081EC90E0978B868B82EC90E0918F808FCC
:1027F00086EC90E0938F828F84E0848F83E0858FD6
:1028000087E0868F85E0878F81E080A3E7E5F4E0AD
:1028100082E090E09383828380E091E091838083E3
:102820000895F8940C94ED1A4532510520F4423085
:1028300010F00C941F14FB011082CB010895BB27EC
:102840004A3031F4992322F4BDE2909581959F4F4F
:102850000C9436144532510520F4423010F00C949B
:102860003514FB011082CB010895BB27FB015527CE
:10287000AA27880F991FAA1FA41710F0A41B8395DD
:102880005051B9F7A05DAA3308F0A95DA193009754
:1028900079F7B111B1931192CB010C944F14DC0173
:1028A000FC01672F71917723E1F7329704C07C9187
:1028B0006D9370836291AE17BF07C8F30895F999BD
:1028C000FECF92BD81BDF89A992780B50895262F35
:1028D000F999FECF1FBA92BD81BD20BD0FB6F89405
:1028E000FA9AF99A0FBE01960895CF93DF9382303A
:1028F000910510F482E090E0E091A404F091A50429
:1029000020E030E0C0E0D0E0309711F1408151810B
:1029100048175907C0F04817590761F4828193811D
:10292000209719F09B838A832BC09093A5048093F2
:10293000A40426C02115310519F04217530718F4D5
:102940009A01BE01DF01EF010280F381E02DDCCFAF
:102950002115310509F1281B390B2430310590F47C
:1029600012968D919C9113976115710521F0FB01D1
:102970009383828304C09093A5048093A404FD01F3
:10298000329644C0FD01E20FF31F819391932250D0
:1029900031092D933C933AC02091A2043091A304B5
:1029A000232B41F420910A0130910B013093A304B1
:1029B0002093A204209108013091090121153105CD
:1029C00041F42DB73EB740910C0150910D01241BED
:1029D000350BE091A204F091A304E217F307A0F4F1
:1029E0002E1B3F0B2817390778F0AC014E5F5F4F65
:1029F0002417350748F04E0F5F1F5093A3044093F0
:102A0000A2048193919302C0E0E0F0E0CF01DF9156
:102A1000CF9108950F931F93CF93DF93009709F4FD
:102A20008CC0FC013297138212820091A404109191
:102A3000A5040115110581F420813181820F931FB6
:102A40002091A2043091A3042817390779F5F09357
:102A5000A304E093A20471C0D80140E050E0AE1797
:102A6000BF0750F412962D913C911397AD0121159B
:102A7000310509F1D901F3CF9D01DA0133832283B6
:102A800060817181860F971F8217930769F4EC01AB
:102A900028813981260F371F2E5F3F4F31832083D6
:102AA0008A819B8193838283452B29F4F093A5042B
:102AB000E093A40442C01396FC93EE931297ED01A9
:102AC000499159919E01240F351FE217F30771F4C4
:102AD00080819181840F951F029611969C938E930D
:102AE0008281938113969C938E931297E0E0F0E09D
:102AF000D80112968D919C911397009719F0F801C7
:102B00008C01F6CF8D919C9198012E5F3F4F820FE3
:102B1000931F2091A2043091A3042817390769F468
:102B2000309729F41092A5041092A40402C01382D5
:102B300012821093A3040093A204DF91CF911F91FE
:102B40000F910895A0E0B0E0E8EAF5E10C94BA1A1C
:102B5000EC01009721F4CB010E947514B8C0FC0170
:102B6000E60FF71F9C0122503109E217F30708F422
:102B7000ACC0D9010D911C91119706171707B0F041
:102B80000530110508F49FC0C80104978617970700
:102B900008F499C002501109061B170B01931193F9
:102BA0006D937C93CF010E940A158DC05B01A01A22
:102BB000B10A4C01800E911EA091A404B091A5040D
:102BC00040E050E0E12CF12C109709F44AC0A81520
:102BD000B905D1F56D907C901197630182E0C80E24
:102BE000D11CCA14DB0480F1A3014A195B096A01F4
:102BF00082E0C80ED11C1296BC9012971396AC912D
:102C0000B5E0CB16D10440F0B282A3835183408358
:102C1000D9016D937C930AC00E5F1F4FC301800FD3
:102C2000911FF90191838083EB2DFA2FE114F104B8
:102C300031F0D7011396FC93EE93129744C0F093B2
:102C4000A504E093A4043FC08D919C91119748176F
:102C5000590708F4AC017D0112960D90BC91A02D8E
:102C6000B3CF8091A2049091A30488159905E1F453
:102C700046175707C8F48091080190910901009701
:102C800041F48DB79EB740910C0150910D01841B0A
:102C9000950BE817F907C8F4F093A304E093A20496
:102CA000F901718360830FC0CB010E9475147C0110
:102CB000009759F0A801BE010E946C16CE010E9437
:102CC0000A15C70104C0CE0102C080E090E0CDB774
:102CD000DEB7EEE00C94D61AFB01DC0102C00190D5
:102CE0000D9241505040D8F70895FB01DC010D9042
:102CF0000020E9F7119701900D920020E1F7089567
:102D0000FB01DC0101900D920020E1F70895FB0129
:102D1000DC010D900020E9F711974150504028F058
:102D2000019000200D92C9F708951C920895AEE01D
:102D3000B0E0EDE9F6E10C94C41A0D891E8986E035
:102D40008C831A8309838FEF9FE79E838D83AE0167
:102D5000475E5F4F6F89788DCE0101960E94BC1748
:102D60002F813885F801E20FF31F10822E96E4E0E0
:102D70000C94E01A0E942E1788F09F5798F0B92FF4
:102D80009927B751B0F0E1F0660F771F881F991FA0
:102D90001AF0BA95C9F714C0B13091F00E944817E3
:102DA000B1E008950C944817672F782F8827B85FF3
:102DB00039F0B93FCCF3869577956795B395D9F7F8
:102DC0003EF490958095709561957F4F8F4F9F4F02
:102DD0000895E89409C097FB3EF49095809570950E
:102DE00061957F4F8F4F9F4F9923A9F0F92F96E957
:102DF000BB279395F695879577956795B795F111CC
:102E0000F8CFFAF4BB0F11F460FF1BC06F5F7F4F68
:102E10008F4F9F4F16C0882311F096E911C077237A
:102E200021F09EE8872F762F05C0662371F096E883
:102E3000862F70E060E02AF09A95660F771F881F52
:102E4000DAF7880F9695879597F9089557FD90586A
:102E5000440F551F59F05F3F71F04795880F97FB5E
:102E6000991F61F09F3F79F0879508951216130618
:102E70001406551FF2CF4695F1DF08C01616170647
:102E80001806991FF1CF869571056105089408957C
:102E9000E894BB2766277727CB0197F908950E940E
:102EA00062170C94511A0E94431A38F00E944A1A71
:102EB00020F0952311F00C943A1A0C94401A112426
:102EC0000C9449170E94261770F3959FC1F3950F34
:102ED00050E0551F629FF001729FBB27F00DB11D9E
:102EE000639FAA27F00DB11DAA1F649F6627B00D2E
:102EF000A11D661F829F2227B00DA11D621F739F17
:102F0000B00DA11D621F839FA00D611D221F749F24
:102F10003327A00D611D231F849F600D211D822F6B
:102F2000762F6A2F11249F5750409AF0F1F0882392
:102F30004AF0EE0FFF1FBB1F661F771F881F9150BF
:102F40005040A9F79E3F510580F00C943A1A0C941A
:102F500049175F3FE4F3983ED4F3869577956795DC
:102F6000B795F795E7959F5FC1F7FE2B880F911DE9
:102F70009695879597F90895ACE0B0E0E2ECF7E11B
:102F80000C94B61A7C016B018A01FC01178216822F
:102F9000838181FFBDC1CE0101964C01F701938170
:102FA000F60193FD859193FF81916F01882309F4C8
:102FB000ABC1853239F493FD859193FF81916F0107
:102FC000853229F4B70190E00E94A419E7CF512C73
:102FD000312C20E02032A0F48B3269F030F48032C2
:102FE00059F0833269F420612CC08D3239F080337E
:102FF00039F4216026C02260246023C0286021C0EB
:1030000027FD27C030ED380F3A3078F426FF06C090
:10301000FAE05F9E300D1124532E13C08AE0389ED3
:10302000300D1124332E20620CC08E3221F426FD87
:103030006BC1206406C08C3611F4206802C088364B
:1030400041F4F60193FD859193FF81916F01811108
:10305000C1CF982F9F7D9554933028F40C5F1F4F5C
:10306000FFE3F9830DC0833631F0833771F0833588
:1030700009F05BC022C0F801808189830E5F1F4F79
:1030800044244394512C540115C03801F2E06F0ED2
:10309000711CF801A080B18026FF03C0652D70E08F
:1030A00002C06FEF7FEFC5012C870E9499192C0198
:1030B00083012C852F77222E17C03801F2E06F0E86
:1030C000711CF801A080B18026FF03C0652D70E05F
:1030D00002C06FEF7FEFC5012C870E948E192C0173
:1030E0002C852068222E830123FC1BC0832D90E0B9
:1030F00048165906B0F4B70180E290E00E94A41986
:103100003A94F4CFF50127FC859127FE81915F0168
:10311000B70190E00E94A41931103A94F1E04F1ADF
:1031200051084114510471F7E5C0843611F0893615
:1031300039F5F80127FF07C0608171818281938191
:103140000C5F1F4F08C060817181072E000C880B37
:10315000990B0E5F1F4F2F76722E97FF09C0909527
:103160008095709561957F4F8F4F9F4F2068722E8D
:103170002AE030E0A4010E94DC19A82EA81844C05F
:10318000853729F42F7EB22E2AE030E025C0F22FB9
:10319000F97FBF2E8F36C1F018F4883579F0B4C0AE
:1031A000803719F0883721F0AFC02F2F2061B22E61
:1031B000B4FE0DC08B2D8460B82E09C024FF0AC058
:1031C0009F2F9660B92E06C028E030E005C020E1B0
:1031D00030E002C020E132E0F801B7FE07C06081B4
:1031E0007181828193810C5F1F4F06C06081718164
:1031F00080E090E00E5F1F4FA4010E94DC19A82E12
:10320000A818FB2DFF777F2E76FE0BC0372D3E7F53
:10321000A51450F474FE0AC072FC08C0372D3E7E1F
:1032200005C0BA2C372D03C0BA2C01C0B52C34FF11
:103230000DC0FE01EA0DF11D8081803311F4397E4D
:1032400009C032FF06C0B394B39404C0832F8678BC
:1032500009F0B39433FD13C030FF06C05A2CB314E9
:1032600018F4530C5B18B32CB31468F4B70180E264
:1032700090E03C870E94A419B3943C85F5CFB31429
:1032800010F43B1801C0312C34FF12C0B70180E3A9
:1032900090E03C870E94A4193C8532FF17C031FDA5
:1032A00003C088E790E002C088E590E0B7010CC059
:1032B000832F867859F031FF02C08BE201C080E293
:1032C00037FD8DE2B70190E00E94A419A51438F4EF
:1032D000B70180E390E00E94A4195A94F7CFAA9412
:1032E000F401EA0DF11D8081B70190E00E94A4195C
:1032F000A110F5CF332009F451CEB70180E290E060
:103300000E94A4193A94F6CFF7018681978102C0F2
:103310008FEF9FEF2C96E2E10C94D21AFC010590FE
:10332000615070400110D8F7809590958E0F9F1FC7
:103330000895FC016150704001900110D8F780950C
:1033400090958E0F9F1F08950F931F93CF93DF9338
:10335000FB01238121FD03C08FEF9FEF28C022FFD7
:1033600016C046815781248135814217530744F4A2
:10337000A081B1819D012F5F3F4F318320838C93CA
:10338000268137812F5F3F4F3783268310C0EB01A3
:10339000092F182F0084F185E02D0995892BE1F67E
:1033A0008E819F8101969F838E83812F902FDF9145
:1033B000CF911F910F910895FA01AA27283051F15A
:1033C000203181F1E8946F936E7F6E5F7F4F8F4F56
:1033D0009F4FAF4FB1E03ED0B4E03CD0670F781FB5
:1033E000891F9A1FA11D680F791F8A1F911DA11D9A
:1033F0006A0F711D811D911DA11D20D009F46894D3
:103400003F912AE0269F11243019305D3193DEF67A
:10341000CF010895462F4770405D4193B3E00FD030
:10342000C9F7F6CF462F4F70405D4A3318F0495D1B
:1034300031FD4052419302D0A9F7EACFB4E0A695FE
:103440009795879577956795BA95C9F70097610520
:10345000710508959B01AC010A2E06945795479576
:1034600037952795BA95C9F7620F731F841F951F6B
:10347000A01D089597F99F6780E870E060E00895C7
:103480009FEF80EC089500240A941616170618067C
:103490000906089500240A94121613061406050658
:1034A0000895092E0394000C11F4882352F0BB0FE9
:1034B00040F4BF2B11F460FF04C06F5F7F4F8F4F4C
:1034C0009F4F0895991B79E004C0991F961708F043
:1034D000961B881F7A95C9F780950895AA1BBB1B78
:1034E00051E107C0AA1FBB1FA617B70710F0A61B04
:1034F000B70B881F991F5A95A9F780959095BC0125
:10350000CD01089597FB072E16F4009407D077FDA0
:1035100009D00E946E1A07FC05D03EF49095819563
:103520009F4F0895709561957F4F0895EE0FFF1F8F
:103530000590F491E02D0994A29FB001B39FC001C2
:10354000A39F700D811D1124911DB29F700D811DCF
:103550001124911D08950E949C1AA59F900DB49F5F
:10356000900DA49F800D911D112408952F923F92DC
:103570004F925F926F927F928F929F92AF92BF9283
:10358000CF92DF92EF92FF920F931F93CF93DF932F
:10359000CDB7DEB7CA1BDB0B0FB6F894DEBF0FBE8C
:1035A000CDBF09942A88398848885F846E847D84D9
:1035B0008C849B84AA84B984C884DF80EE80FD80DB
:1035C0000C811B81AA81B981CE0FD11D0FB6F89451
:0E35D000DEBF0FBECDBFED010895F894FFCF12
:1035DE00080009000A000B000000A60420000100EC
:1035EE0002000400080001000300020006000400AF
:1035FE000C00080009008F029702A002A602AC027E
:10360E00B002B502BA02C102CB02D302DC02E5025D
:10361E00EC02F402FE0207030E0317030000000083
:10362E00060DC90CC10CAD0C9E0C9D0C00000000CB
:10363E005F0DA403E80DAC0DCC0DA10D2E20646121
:10364E007900434554202028636F72726563746558
:10365E0064293A2000434553542028636F727265E3
:10366E0063746564293A200030003A007477696CFF
:10367E0069676874204345543A202000202D2000AD
:10368E007477696C6967687420434553543A200017
:10369E007477696C696768742064656C617920431E
:1036AE0045543A2020007477696C69676874206409
:1036BE00656C617920434553543A200073657475E7
:1036CE007020656E640069734461793A20006F70F2
:1036DE00656E3A2000202F2000636C6F7365206F9B
:1036EE0070656E556E6974733A2000206164646A69
:1036FE007573746D656E743A20002F00776169746E
:10370E00696E6720666F722061646A7573746D6589
:10371E006E7420002073006F70656E206D69737378
:10372E00696E67556E6974733A2000556E6B6E6FD5
:10373E00776E00726400746800414D00504D007049
:10374E006D00616D00592D6D2D6420483A693A73F4
:10375E00207A002530326400256400256C75004AFD
:10376E00616E75617279004665627275617279007B
:10377E004D6172636800417072696C004D61790031
:10378E004A756E65004A756C79004175677573747C
:10379E000053657074656D626572004F63746F627D
:1037AE006572004E6F76656D626572004465636585
:1037BE006D626572004D6F6E64617900547565734C
:1037CE00646179005765646E65736461790054684D
:1037DE007572736461790046726964617900536130
:0E37EE007475726461790053756E64617900C0
:00000001FF
